:100000000C94D8000C94B20B0C948B0B0C94640BD6
:100010000C943D0B0C9400010C9400010C94160BF5
:100020000C9400010C947A0E0C94D90B0C94480C8F
:100030000C9400010C9400010C9400010C9400013C
:100040000C9400010C9400010C9400010C9400012C
:100050000C9400010C9400010C9400010C94CC0A47
:100060000C9400010C9400010C9400010C9400010C
:100070000C9400010C9400010C9400010C940001FC
:100080000C9400010C9400010C9400010C940001EC
:100090000C9400010C9400010C9400010C940001DC
:1000A0000C9400010C9400010C94000105A84CCDA7
:1000B000B2D44EB93836A9020C50B9918688083CA2
:1000C000A6AAAA2ABE000000803F080B0002020276
:1000D00000000904000001020200000524001001D4
:1000E0000524010101042402060524060001070578
:1000F000810310004009040100020A000000070506
:1001000002024000000705830240000004030904C6
:1001100012010002EF020140FB1F00230001010257
:100120000301506F6C6F6C7520436F72706F72615A
:1001300074696F6E00506F6C6F6C7520412D537435
:100140006172203332553400000000002500280081
:100150002B002E00310000000000240027002A00A0
:100160002D0030000404040404030405020202020A
:100170000403020202020606060606060404020240
:100180000204040408020110408040102040804016
:1001900080080204018040201002011080102040DD
:1001A0004020070605040100080A0B0C0D09F60E95
:1001B00011241FBECFEFDAE0DEBFCDBF12E0A0E01A
:1001C000B1E0E0EAF1E302C005900D92A036B1077C
:1001D000D9F725E0A0E6B2E001C01D92A63AB20729
:1001E000E1F710E0C8EDD0E004C02197FE010E94C5
:1001F000EB15C73DD107C9F70E94BF0F0C94CE186D
:100200000C940000FC0180915804882311F13FB741
:10021000F89482E08093E9002091F200822F90E030
:100220001816190614F481E090E0882339F0289814
:1002300044E6409357044091F1004083222339F073
:100240002091F200211103C02BE62093E8003FBF6C
:1002500008958FEF9FEF08952FB7F89483E0809370
:10026000E9009091E800892F807295FF04C0909179
:10027000F20080E4891B2FBF089580914F04811103
:100280000DC082E080934B0484E080934C04109274
:100290004E0410924D0481E080934F048BE494E06F
:1002A0000895823108F08251E82FF0E0EE55FE4FBC
:1002B000E49190917B008E2F880F880F80729F7D34
:1002C000892B80937B00E770E064E0937C00809151
:1002D0007A00806480937A0080917A0086FDFCCF5A
:1002E000809178009091790008953FB7F8948091BB
:1002F000470490914804A0914904B0914A0426B55E
:10030000A89B05C02F3F19F00196A11DB11D3FBF4D
:10031000BA2FA92F982F8827BC01CD01620F711D1C
:10032000811D911D42E0660F771F881F991F4A9516
:10033000D1F708958F929F92AF92BF92CF92DF92A2
:10034000EF92FF924B015C010E9475016B017C01F1
:100350000E9475016C197D098E099F09683E7340E2
:1003600081059105A8F321E0821A9108A108B1083E
:1003700088EEC80E83E0D81EE11CF11C81149104A4
:10038000A104B10429F7FF90EF90DF90CF90BF90C8
:10039000AF909F908F9008952FB7F8946091430489
:1003A0007091440480914504909146042FBF0895B4
:1003B00008954091880250918902209186023091DF
:1003C000870242175307B4F49091E8009570E1F367
:1003D0009091E80092FD19C08093F100809188020D
:1003E0009091890201968F739927892B19F48EEFCA
:1003F0008093E80080918802909189020196909301
:1004000089028093880281E0089580E00895EF9248
:10041000FF920F931F93CF93DF93F82E192FE62EA1
:10042000042F81E0860F880F0E94D90183E00E948B
:10043000D901CF2DD12FEC0EFD2EF11CCE15DF05ED
:10044000B9F007FF13C0FE0184910E94D901182F53
:1004500080E00E94D901812321968111EFCFDF91A5
:10046000CF911F910F91FF90EF9008958881EDCF6C
:1004700081E0F5CFDF92EF92FF920F931F93CF931E
:10048000DF93D82E8A01EB017B01E40EF51ECE1519
:10049000DF0559F0D7FE12C0FE0184910E94D901F8
:1004A00021968111F4CF0FEF1FEFC801DF91CF919B
:1004B0001F910F91FF90EF90DF9008958881EECF0C
:1004C0000F931F93CF93DF931F92CDB7DEB782E0D8
:1004D000898342E450E06AEC70E080E80E943A02CE
:1004E0000E943D01DC0112960D911C910115110530
:1004F00089F0D801ED91FC910280F381E02DBE01DD
:100500006F5F7F4FC801099597FD04C0F801008512
:100510001185ECCF89810F90DF91CF911F910F91C1
:100520000895615030F02091F100FC012083019684
:10053000F8CF289884E68093570408958F929F926D
:10054000AF92BF92CF92DF92EF92FF920F931F93E1
:10055000CF93DF936C017B018A0180910B0188238B
:1005600009F45CC080915804882309F457C0809135
:100570008C0280FF05C08091E00082608093E000E3
:10058000E801B12C8AEFA82E93E0892E2AE3922E5F
:10059000209711F4BB20D9F10E942C0181110AC0CF
:1005A000AA94AA20D9F161E070E080E090E00E9476
:1005B0009A01EECF8C171D0611F00CF08C2F9FB70F
:1005C000F8948092E9002091E80025FD02C09FBFC9
:1005D000DFCF282F30E0C21BD30BF701815020F072
:1005E00041914093F100FACFE20EF31EBB2021F0BF
:1005F0009092E800B12CEBCF8091E80085FDE7CF29
:100600009092E800BB24B394209709F3F3CF5D9850
:1006100084E680938B02101611063CF081E090E096
:10062000F6019383828310E000E0C801DF91CF914F
:100630001F910F91FF90EF90DF90CF90BF90AF9000
:100640009F908F900895CF93DF931F92CDB7DEB721
:100650006983DC01ED91FC910280F381E02D41E0A2
:1006600050E0BE016F5F7F4F09950F90DF91CF91F2
:10067000089583E08093E9008091F200882319F0C7
:100680008AE38093E80008950E942C0190E0089589
:10069000CF93DF931F92CDB7DEB7FC01848595859C
:1006A00097FD08C02FEF3FEF358724870F90DF912C
:1006B000CF910895CE0101960E940201019719F48D
:1006C000898190E0F3CF8FEF9FEFF0CF0F931F93CF
:1006D000CF93DF931F92CDB7DEB78C01FC018485E9
:1006E000958597FF0BC0CE0101960E9402010197EC
:1006F00071F4898190E0F80195878487F8018485F9
:1007000095850F90DF91CF911F910F9108958FEFF5
:100710009FEFF1CFFC018485958597FD0BC09FB7B6
:10072000F89482E08093E9008091F2009FBF90E00E
:10073000019608959FB7F89482E08093E900809134
:10074000F2009FBF90E008952E98269A2D98259A42
:100750002A98229A2998219A2F98279A8AEA809390
:10076000800089E18093810084EA91E09093870082
:1007700080938600109289001092880010928B005E
:1007800010928A0010928D0010928C0008950F93A1
:100790001F93CF93DF938C01EB0180917502811140
:1007A00005C081E0809375020E94A40380E017FFDA
:1007B00004C011950195110981E00D3291E01907EE
:1007C00014F00CE211E010938B0000938A00882350
:1007D00029F12A9A229A80917502811105C081E03F
:1007E000809375020E94A40380E0D7FF04C0D195D6
:1007F000C195D10981E0CD3291E0D90714F0CCE266
:10080000D1E0D0938900C0938800882349F0299AC9
:10081000219ADF91CF911F910F9108952A98DACFF5
:100820002998F6CF8CB1282F30E03595279535954E
:100830002795422F417083B190E054E095958795BC
:100840005A95E1F78227817020917302909174028A
:10085000609171027091720224279827291B330B33
:10086000260F371F3093720220937102209173027A
:1008700090917402281729F0941719F091E0909341
:100880007002809373024093740208959FB1917037
:100890008CB186FB882780F9892720916E023091E0
:1008A0006F0240916C0250916D0229273827231B5B
:1008B000330B240F351F30936D0220936C0230915F
:1008C0006E0220916F02381729F0291719F021E0E4
:1008D00020936B0280936E0290936F020895249888
:1008E0002C9A6A98729A6E98769A8098889AF89458
:1008F00091E090936800EBE6F0E080818061808376
:1009000022E134E030937F0220937E029BBB8091F2
:10091000AB048F7E8093AB0483B19091AB04807164
:10092000892B8093AB04789486E494E0909315012E
:1009300080931401EAE6F0E080818F7C80618083FF
:10094000EE9A8CB182FB882780F98093740293B170
:10095000809174029295917089278093730210920E
:10096000720210927102109270028FB181708093A6
:100970006F029CB180916F0296FB992790F98927AD
:1009800080936E0210926D0210926C0210926B02B4
:100990000895FC0180810E945101BC01990F880BD0
:1009A000990B0E94121720E030EC4FE754E40E94AC
:1009B000681620E030E040EA50E40E94061821E783
:1009C0003DE34AE05FE30E94F11527ED33EA46E894
:1009D00051E40E9468169B01AC0160E070E080E881
:1009E0009FE30E9468160895CF92DF92EF92FF92E4
:1009F000CF93DF93EC010E94CC016B017C018091CD
:100A0000670290916802A0916902B0916A02B701F1
:100A1000A601481B590B6A0B7B0B8C859D85092E03
:100A2000000CAA0BBB0B481759076A077B0708F491
:100A300048C08091590490915A0490936602809323
:100A400065028091630290916402909362028093A8
:100A5000610280916002811105C081E08093600293
:100A60000E946F04F89480917102909172027894C0
:100A700090935A048093590480916002811105C0BB
:100A800081E0809360020E946F04F89480916C0270
:100A900090916D02789490936402809363020E9417
:100AA000CC01C0926702D0926802E0926902F09293
:100AB0006A0281E0DF91CF91FF90EF90DF90CF90BD
:100AC000089580E0F7CFCF92DF92EF92FF92CF931D
:100AD000DF93EC01288139814A815B8168857985C2
:100AE0008A859B850E9468166B017C016091630278
:100AF000709164028091610290916202681B790B8F
:100B0000072E000C880B990B0E9412179B01AC0159
:100B1000C701B6010E9406186B017C016C857D85BA
:100B2000072E000C880B990B0E94121720E030E072
:100B30004AE754E40E9468169B01AC01C701B60164
:100B40000E946816DF91CF91FF90EF90DF90CF90D9
:100B50000895CF92DF92EF92FF92CF93DF93EC0153
:100B6000288139814A815B81688579858A859B8561
:100B70000E9468166B017C016091590470915A04BF
:100B80008091650290916602681B790B072E000C1C
:100B9000880B990B0E9412179B01AC01C701B6018B
:100BA0000E9406186B017C016C857D85072E000C68
:100BB000880B990B0E94121720E030E04AE754E4BA
:100BC0000E9468169B01AC01C701B6010E9468161D
:100BD000DF91CF91FF90EF90DF90CF900895FC01CF
:100BE00001900020E9F73197AF01481B590BBC0178
:100BF0008BE594E00C949E028F929F92AF92BF92ED
:100C00000F931F93CF93DF93CDB7DEB7A1970FB6A6
:100C1000F894DEBF0FBECDBF19A2423008F44AE0FF
:100C20008E010F5D1F4F842E912CB12CA12CA5019C
:100C300094010E94C915E62FB901CA01EA30F4F403
:100C4000E05DD801EE938D01232B242B252B79F722
:100C500090E080E0109719F0CD010E94EF05A19679
:100C60000FB6F894DEBF0FBECDBFDF91CF911F91BD
:100C70000F91BF90AF909F908F900895E95CE1CF66
:100C80000C94EF05CF93DF930E94EF05EC018AE30C
:100C900091E00E94EF058C0F9D1FDF91CF91089589
:100CA0004F925F926F927F928F929F92AF92BF927C
:100CB000CF92DF92EF92FF920F931F93CF936B012E
:100CC0007C01742EAC019B010E947B18882399F053
:100CD0008DE391E0CF911F910F91FF90EF90DF9006
:100CE000CF90BF90AF909F908F907F906F905F90CC
:100CF0004F900C94EF0546015701E894B7F82FEF99
:100D00003FEF4FE75FE7C501B4010E947B188111F7
:100D10000DC02FEF3FEF4FE75FE7C501B4010E9421
:100D20005E1618161CF481E491E0D4CF2FEF3FEF4C
:100D30004FE75FE4C701B6010E94011818161CF4C2
:100D400085E491E0C7CF2FEF3FEF4FE75FECC7019E
:100D5000B6010E945E1687FDF3CF20E030E0A901C6
:100D6000C701B6010E945E1610E000E087FF0AC0CE
:100D70006DE28BE594E00E9423038C01F7FAF09476
:100D8000F7F8F094C0E060E070E080E09FE37C164C
:100D900041F020E030E040E251E40E946816CF5F6D
:100DA000F6CFA70196010E94F2152B013C010E948B
:100DB000E1164B015C014AE00E94FC057C01E00E5B
:100DC000F11ECC23C1F1C501B4010E9410179B0193
:100DD000AC01C301B2010E94F1154B015C016EE24E
:100DE0008BE594E00E942303E80EF91EC15018F130
:100DF00020E030E040E251E4C501B4010E94061851
:100E00002B013C010E94E1164B01B12CA12C4AE0C0
:100E1000C501B4010E94FC05E80EF91EC501B4012C
:100E20000E9410179B01AC01C301B2010E94F11591
:100E30004B015C01DBCFC701CF911F910F91FF9058
:100E4000EF90DF90CF90BF90AF909F908F907F906A
:100E50006F905F904F900895CF93DF930E9450065C
:100E6000EC018AE391E00E94EF058C0F9D1FDF915A
:100E7000CF9108950E94C90445E050E00E942C07DC
:100E80000895CF92DF92EF92FF92CF93DF936C01A0
:100E9000990FEE08FF08F7FE1FC06DE28BE594E0A6
:100EA0000E942303EC0166277727CB016C197D098B
:100EB0008E099F094AE00E94FC05C80FD91F8AE3EA
:100EC00091E00E94EF058C0F9D1FDF91CF91FF9065
:100ED000EF90DF90CF9008954AE0C701B6010E94DD
:100EE000FC05EC01ECCF0E94C918CF93DF93A2EE72
:100EF000B0E09C911C92E9EEF0E020811082C0EFFE
:100F0000D0E03881188240E05D9941605599426097
:100F100055985D9A80E18A95F1F789B141FB0EF011
:100F2000559840FB0EF05D980EF45D9A41FB0EF46F
:100F3000559A1082388320839C9390E025E0959504
:100F400087952A95E1F7809590958170DF91CF91F3
:100F50000895CF93DF938EE995E00E947507D1E065
:100F6000C82FCD270E94CC012091A305213099F0F4
:100F700030F0223011F1233041F1C0E008C0C1113E
:100F8000FCCF7093A5056093A405D093A3058C2F87
:100F9000DF91CF910895CC2319F01092A305EDCFE6
:100FA0002091A4053091A505621B730B6F3071056C
:100FB00070F382E08093A305E0CFCC2341F37093DC
:100FC000A5056093A40583E0F5CFCC2391F3209190
:100FD000A4053091A505621B730B6F30710568F293
:100FE0001092A305D4CF4F925F926F927F928F920F
:100FF0009F92AF92BF92CF92DF92EF92FF920F93A8
:101000001F93CF93DF93CDB7DEB76A970FB6F894EF
:10101000DEBF0FBECDBF9A8F898F4A015B012801C9
:1010200039010E94CC01A98DBA8D96966D937D935E
:101030008D939C939997A5019401C301B8010E94D7
:10104000F1156B017C0120E030E0A9010E9401183C
:1010500018160CF032C111E020E030E040E85EE309
:10106000C701B6010E94011818160CF010E0A50186
:101070009401C301B2010E94F2154B015C01A98DDC
:10108000BA8D1E968D919D910D90BC91A02D8D8352
:101090009E83AF83B887E98DFA8D46885788608C28
:1010A000718CC301B2010E94631669877A878B87AE
:1010B0009C87A98DBA8D52968D919D910D90BC9172
:1010C000A02D8D879E87AF87B88BC301B2010E9488
:1010D0007318698B7A8B8B8B9C8B112309F4FAC064
:1010E000A98DBA8D9E968D919D910D90BC91A02D4C
:1010F00089839A83AB83BC8320E030E040E05FE3E8
:10110000BC01CD010E9406186D8B7E8B8F8B988F52
:10111000A7019601C501B4010E9468169B01AC01AC
:101120006D897E898F89988D0E9406184B015C011C
:1011300029813A814B815C81C701B6010E94681602
:101140002DEC3CEC4CE45DE30E940618A3019201F7
:101150000E94F2156B017C010E9473182B013C0167
:1011600029893A894B895C89C501B4010E94061816
:101170009B01AC016D817E818F8198850E94F11564
:1011800069837A838B839C83A5019401C301B20197
:101190000E9406189B01AC0169817A818B819C8138
:1011A0000E94F215E98DFA8D66877787808B918B87
:1011B000C701B6010E9463162B013C0129853A85BF
:1011C0004B855C85C501B4010E94061869837A834A
:1011D0008B839C83A5019401C301B2010E94061870
:1011E0009B01AC0169817A818B819C810E94F11500
:1011F0002D853E854F8558890E94F215A98DBA8D9F
:1012000052966D937D938D939C935597FD01C68A5D
:10121000D78AE08EF18EA98DBA8D5696CD90DD904D
:10122000ED90FC9059972BED3FE049EC50E4C7015D
:10123000B6010E94011818160CF08BC02BED3FE090
:1012400049EC50E4C701B6010E94F115E98DFA8D11
:10125000668B778B808F918FE98DFA8D8685978548
:10126000A089B18982AB93ABA4ABB5AB82899389DA
:10127000A489B58986AB97ABA0AFB1AF86899789B2
:10128000A08DB18D82AF93AFA4AFB5AF6A960FB604
:10129000F894DEBF0FBECDBFDF91CF911F910F91AC
:1012A000FF90EF90DF90CF90BF90AF909F908F9086
:1012B0007F906F905F904F90089520E030E040E87D
:1012C0005EEBC701B6010E945E16182F111F112791
:1012D000111FCDCE20E030E040E05FE3C501B40156
:1012E0000E9406186B017C0129853A854B855C8537
:1012F0000E9406182DEC3CEC4CE45DE30E940618BD
:101300002D813E814F8158850E94F215A98DBA8D9D
:101310001E966D937D938D939C93519729893A895D
:101320004B895C89C701B6010E9406182DEC3CEC84
:101330004CE45DE30E9406182D853E854F85588953
:101340000E94F215E98DFA8D628B738B848B958BDD
:1013500062CF20E030E0A901C701B6010E945E160D
:1013600087FF7ACF2BED3FE049EC50E4C701B6018F
:101370000E94F215A98DBA8D56966D937D938D932B
:101380009C93599769CF2F923F924F925F926F92A1
:101390007F928F929F92AF92BF92CF92DF92EF9205
:1013A000FF920F931F93CF93DF93CDB7DEB72897AC
:1013B0000FB6F894DEBF0FBECDBF6B017C012B01D1
:1013C0003C0177FA709477F8709480911A01882321
:1013D00009F483C020E030E0A901C7010E94011890
:1013E00046015701181614F04201530170E060E005
:1013F00090E080E00E94C70380918C0590918D055C
:101400002EE1289FA001299F500D11245A83498362
:101410008091590490915A0498878F839401A50173
:10142000C701B6010E9468160E94DA1622E3269FC1
:10143000A001279F500D11245C834B832EEC2603C3
:10144000A001279F500D11245E834D832F80388487
:101450003194219431084F81588557FDA101809125
:10146000590490915A0497FF03C091958195910971
:101470009A01281B390B121613061CF09C01241B21
:10148000350B89819A8182179307FCF06B817C81EF
:101490008D819E810E94C7038CEA94E00E94F4042F
:1014A0008823C9F28CEA94E00E9463054B015C0139
:1014B0008CEA94E00E94A905AB01BC01950184016E
:1014C0008CEA94E00E94F307C6CF70E060E090E001
:1014D00080E00E94C70310921A01C701B6010E9462
:1014E000DA166B01C301B2010E94DA16CB01B60114
:1014F0000E94C70380918E050E9451019A838983BF
:10150000809190050E945101C0909605D09097055A
:10151000E0909805F0909905BC01990F880B990B04
:101520000E941217A70196010E945E1687FD10C047
:1015300029813A81B901330F880B990B0E94121748
:101540009B01AC01C701B6010E940118181614F5E1
:1015500070E060E090E080E00E94C70381E080934B
:101560001A0128960FB6F894DEBF0FBECDBFDF91EB
:10157000CF911F910F91FF90EF90DF90CF90BF9090
:10158000AF909F908F907F906F905F904F903F9023
:101590002F90089580E0E5CF1F920F920FB60F9223
:1015A00011242F933F938F939F93AF93BF93809179
:1015B000430490914404A0914504B09146043091B5
:1015C000420423E0230F2D3758F50196A11DB11DCC
:1015D000209342048093430490934404A0934504D1
:1015E000B09346048091470490914804A091490427
:1015F000B0914A040196A11DB11D809347049093B8
:101600004804A0934904B0934A04BF91AF919F91BD
:101610008F913F912F910F900FBE0F901F901895B3
:1016200026E8230F0296A11DB11DD2CF1F920F9263
:101630000FB60F9211242F933F934F935F936F93A5
:101640007F938F939F93AF93BF93EF93FF93E0911B
:101650001401F09115010995FF91EF91BF91AF91A0
:101660009F918F917F916F915F914F913F912F91BA
:101670000F900FBE0F901F9018951F920F920FB6EC
:101680000F9211242F933F934F935F936F937F9308
:101690008F939F93AF93BF93EF93FF93E0911201CA
:1016A000F09113010995FF91EF91BF91AF919F9137
:1016B0008F917F916F915F914F913F912F910F90FB
:1016C0000FBE0F901F9018951F920F920FB60F929A
:1016D00011242F933F934F935F936F937F938F9337
:1016E0009F93AF93BF93EF93FF93E0911001F0911D
:1016F00011010995FF91EF91BF91AF919F918F914A
:101700007F916F915F914F913F912F910F900FBEFD
:101710000F901F9018951F920F920FB60F921124E1
:101720002F933F934F935F936F937F938F939F93E9
:10173000AF93BF93EF93FF93E0910E01F0910F01F0
:101740000995FF91EF91BF91AF919F918F917F91FB
:101750006F915F914F913F912F910F900FBE0F901E
:101760001F9018951F920F920FB60F9211242F936E
:101770003F934F935F936F937F938F939F93AF9319
:10178000BF93EF93FF93E0910C01F0910D01099548
:10179000FF91EF91BF91AF919F918F917F916F9149
:1017A0005F914F913F912F910F900FBE0F901F901F
:1017B00018951F920F920FB60F9211248F939F933B
:1017C0008091E1009091E100937F9093E10083FF8D
:1017D0000FC01092E90091E09093EB001092EC00A2
:1017E00092E39093ED001092580498E09093F000EB
:1017F00082FF22C093E09093E9009091F200992338
:1018000019F09AE39093E80090918B02992341F0AC
:1018100090918B02915090938B02911101C05D9A2F
:1018200090915704992341F09091570491509093CF
:101830005704911101C0289A84FF18C08091E200DA
:101840008E7E81608093E2008091E1008F7E8093A4
:10185000E10080918C028E7E806180938C029F914A
:101860008F910F900FBE0F901F90189580FFF7CFAC
:101870008091E2008E7E80618093E2008091E100A1
:101880008E7E8093E10080918C028E7E8160E5CF18
:101890001F920F920FB60F921124CF92DF92EF9208
:1018A000FF920F931F932F933F934F935F936F93E9
:1018B0007F938F939F93AF93BF93EF93FF93CF93B8
:1018C000DF93CDB7DEB76C97DEBFCDBF1092E900D6
:1018D0008091E80083FF25C068E0CE0145960E9414
:1018E000910282EF8093E8008D8987FF39C0909143
:1018F000E80090FFFCCF982F907609F034C19E89C4
:101900004F89588D2F89F88C911131C0803861F53D
:1019100080918D028093F1001092F1008EEF809300
:10192000E8006C960FB6F894DEBF0FBECDBFDF9116
:10193000CF91FF91EF91BF91AF919F918F917F9147
:101940006F915F914F913F912F911F910F91FF9058
:10195000EF90DF90CF900F900FBE0F901F901895D3
:101960009EEF9093E800C7CF1092F100D5CF913051
:1019700059F48111D3CF4130510581F680918D0208
:101980008D7F80938D02CACF933049F48111C6CFE9
:101990004130510519F680918D028260F2CF953069
:1019A00041F48091E80080FFFCCF20682093E300A1
:1019B000B5CF963009F0A9C00B8D1C8D22E0109296
:1019C000E9001092890210928802F2122EC0109241
:1019D0008702109286020E9460021F8299E099831A
:1019E000FA8291E09E8390EA98879AEF99872091F6
:1019F000880230918902275F3F4F3C832B838D8380
:101A00001092E900109289021092880210938702C6
:101A10000093860249E050E0BE016F5F7F4F80E097
:101A20000E943A020E94600279CF109387020093CD
:101A300086020E943D01DC0112960D911C91011558
:101A4000110509F451C1D801ED91FC910480F58193
:101A5000E02DBE016B5E7F4FC8010995009709F02C
:101A60003EC1F80100851185EACFF3E0FF120EC0F8
:101A70008F89882309F440C0823061F440E862E134
:101A800085E391E00E940702811148CF81E28093B3
:101A9000EB0047CF813029F440E862E182E291E037
:101AA000F1CF833099F70E943D01DC011296ED9051
:101AB000FC908E010F5F1F4F6801E114F10479F073
:101AC000D701ED91FC910680F781E02DB801C701A7
:101AD0000995080F111DF701E084F184EECFD801BC
:101AE0001C92F60101900020E9F73197BF016C19B3
:101AF0007D0940E0C601C6CF6CE071E0FB01449176
:101B000050E080E80E943A0209CF973009F4BECF36
:101B1000983021F481E08093F10000CF993009F0F2
:101B2000FDCE837009F0B2CFECE1F1E081E031E06D
:101B300096E32191222371F08093E9003093EB002A
:101B4000DF0111972C912093EC009093ED008F5FB3
:101B5000873079F78EE78093EA001092EA008F8948
:101B600080935804DBCE8B8D9C8D1092E9001092EF
:101B70008902109288029093870280938602898D51
:101B8000811192C08E899D89913A49F4813209F080
:101B90007DCF47E050E064E071E080E0B3CF913268
:101BA00009F074CF833269F48F89988DB0E0A0E09A
:101BB0008093000190930101A0930201B09303016F
:101BC000ADCE803269F48091E80082FFFCCF67E0FF
:101BD00084E091E00E9491028BEF8093E8009ECE1A
:101BE000823209F09BCE8F8980930B01EEEFFFE7E5
:101BF000859194918B3F9C4D51F1E0E0F8E080910C
:101C0000040190910501A0910601B0910701803B6C
:101C10009440A105B105F1F480910B0180FD1AC03B
:101C2000EE3F8AE0F80789F587E797E7918380839D
:101C30008091600080938A0288E19BE00FB6F8945F
:101C4000A895809360000FBE9093600067CEEEEF82
:101C5000FAE0D5CF808191818737974709F05ECE32
:101C6000A8958091600088618093600080918A02CD
:101C700080936000EE3F2AE0F20789F08091FE0A2F
:101C80009091FF0A9183808349CE8081918187372B
:101C9000980751F29093FF0A8093FE0AC5CF1092E5
:101CA000FF0A1092FE0A3ACE0E943D01DC01129614
:101CB0000D911C910115110509F4E8CED801ED91A3
:101CC000FC910190F081E02DBE016B5E7F4FC80159
:101CD0000995811123CEF80100851185EBCF1816E7
:101CE00019060CF41BCED2CEF1E0FF12BECE60E19D
:101CF00071E004CF1F920F920FB60F9211242F9311
:101D00003F934F935F936F937F938F939F93AF9383
:101D1000BF93EF93FF93CF93DF9300D01F92CDB784
:101D2000DEB783B1898389819091AB0489278A8347
:101D300080916B009A8189238B838B8180FF05C002
:101D4000E0917602F091770209958B8181FF05C0C1
:101D5000E0917802F091790209958B8182FF05C0AC
:101D6000E0917A02F0917B0209958B8183FF05C097
:101D7000E0917C02F0917D0209958B8184FF05C082
:101D8000E0917E02F0917F0209958B8185FF05C06D
:101D9000E0918002F091810209958B8186FF05C058
:101DA000E0918202F091830209958B8187FF05C043
:101DB000E0918402F0918502099589818093AB04BA
:101DC0000F900F900F90DF91CF91FF91EF91BF9106
:101DD000AF919F918F917F916F915F914F913F91C3
:101DE0002F910F900FBE0F901F901895EBE5F4E028
:101DF0001382128288EE93E0A0E0B0E084839583A2
:101E0000A683B78386E291E0918380838FEF9FEF73
:101E10009587848783B18093AB04EEE9F5E0128265
:101E2000158288E391E091838083ECEAF4E080E01E
:101E300090E0A4EBB4E480839183A283B38380E039
:101E400090E0ACE0B2E484839583A683B78388E511
:101E500099EEABE5B3E480879187A287B38782E3ED
:101E600090E09587848716861786108A118A128AD1
:101E7000138A148A158A168A178A108E118E128E6A
:101E8000138E148E158E168E178E10A211A212A20A
:101E900013A214A215A280E090EEAEE0B3E486A7F0
:101EA00097A7A0ABB1AB12AA13AA14AA15AA16AA97
:101EB00017AA10AE11AE12AE13AE14AE15AE80E07E
:101EC00090E0A0E0BFE380937C0590937D05A09314
:101ED0007E05B0937F058DEC9CECACE4BEE3809373
:101EE000800590938105A0938205B093830510929D
:101EF0008405109285051092860510928705109230
:101F000088051092890510928A0510928B0588E049
:101F100090E090938D0580938C0585E190E09093FF
:101F20008F0580938E0586E190E0909391058093D4
:101F300090058DEC9CECACECBCE380939205909307
:101F40009305A0939405B093950580E090E0A8E4F4
:101F5000B3E48093960590939705A0939805B0936A
:101F6000990580E090E0A8ECB2E480939A05909304
:101F70009B05A0939C05B0939D050C94CC01CF9339
:101F8000DF93CDB7DEB760970FB6F894DEBF0FBE14
:101F9000CDBF789484B5826084BD84B5816084BDF2
:101FA00085B5826085BD85B5816085BD80916E00F7
:101FB000816080936E001092810080918100826028
:101FC0008093810080918100816080938100809165
:101FD0008000816080938000809191008260809376
:101FE0009100809191008160809391008091900098
:101FF0008160809390008091C10084608093C100D3
:102000008091C10082608093C1008091C100816095
:102010008093C1008091C30081608093C300809150
:10202000C00082608093C0008091C2008160809374
:10203000C20080917A00846080937A0080917A0057
:10204000826080937A0080917A00816080937A0028
:1020500080917A00806880937A00109258041092E0
:102060008D0210928C028091D70081608093D700FE
:1020700080EA8093D80089B5806189BD89B5826086
:1020800089BD09B400FEFDCF61E070E080E090E022
:102090000E949A018091D8008F7C80618093D80043
:1020A0008091E000807F8093E0008091E1008E7E4F
:1020B0008093E1008DE08093E200559A209A0E947F
:1020C000CC016093D6047093D7048093D804909386
:1020D000D9041092DE041092DF041092E0041092F2
:1020E000E1041092E2041092E3041092E4041092CE
:1020F000E5041092E6041092E7041092E8041092AE
:10210000E90480913E0490913F04FC01EE0FFF1F13
:10211000EE0FFF1FE257FD4F1082118212821382D1
:10212000FC01EE0FFF1FEE0FFF1FEA59FC4F10825C
:10213000118212821382019690933F0480933E0491
:10214000E0EAF1E02491E1E8F1E084918823C9F02C
:1021500090E0880F991FFC01EA5AFE4F6591749137
:10216000FC01E85BFE4FA591B4919FB7F894FB0189
:1021700080812095822380838C91E22FE823EC9349
:102180009FBF8DE190E09093190180931801E5E9DC
:10219000F1E02491E6E7F1E084918823C9F090E032
:1021A000880F991FFC01EA5AFE4F65917491FC015A
:1021B000E85BFE4FA591B4919FB7F894FB01808135
:1021C0002095822380838C91E22FE823EC939FBF9C
:1021D00082E190E0909317018093160103E0202E96
:1021E000312C0E94CC012AE030E040E050E00E9417
:1021F000C915672B682B692B81F489E491E00E9453
:10220000400688E191E00E943A0781E591E00E9452
:10221000400686E191E00E943A078CEA94E00E9431
:10222000F404882301F18CEA94E00E9463056B01B9
:102230007C018CEA94E00E94A905AB01BC019701E6
:1022400086018CEA94E00E94F3078091400490910B
:1022500041048330910509F447C468F4009709F4F8
:1022600039C10297A9F080E090E0892B09F4B9CF39
:102270000E940000B6CF8530910509F467C408F4C8
:102280005EC4069781F760E070E086E992EC5BC47B
:1022900080918E050E9451019A83898380919005D7
:1022A0000E9451018C0149815A81BA01550F880B56
:1022B000990B012E000C220B330B600F711F821F34
:1022C000931F0E9412172091960530919705409117
:1022D0009805509199050E945E1687FFC4C070E072
:1022E00060E090E080E00E94C70368EE73E080E069
:1022F00090E00E949A010E94CC016D877E878F87B3
:10230000988B0E94CC012D853E854F855889621B94
:10231000730B840B950B693B7B408105910508F09D
:10232000E9C08CEA94E00E94F404882351F38CEA1B
:1023300094E00E94A9059B01AC0160E070E084E09C
:1023400092E40E94F1156D837E838F8398878CEAD7
:1023500094E00E9463059B01AC0160E070E084E0C2
:1023600092E40E94F1152B013C01209184053091EB
:10237000850540918605509187056D817E818F810D
:1023800098850E94F21569877A878B879C8760936E
:102390008405709385058093860590938705209129
:1023A00088053091890540918A0550918B05C301BC
:1023B000B2010E94F2154B015C0180928805909257
:1023C0008905A0928A05B0928B05C0907C05D090BB
:1023D0007D05E0907E05F0907F05809180059091CD
:1023E0008105A0918205B091830589839A83AB838F
:1023F000BC83A7019601C301B2010E9406182B01FC
:102400003C0129813A814B815C81C501B4010E9464
:1024100006189B01AC01C301B2010E94F2150E9493
:10242000DA164B01A70196016D817E818F81988517
:102430000E9406186B017C0129813A814B815C81E5
:1024400069857A858B859C850E9406189B01AC0165
:10245000C701B6010E94F2150E94DA16CB01B40141
:102460000E94C7034ECF80918E050E9451019A832E
:102470008983809190050E94510169817A81681B4E
:10248000790B072E000C880B990B0E9412172091D4
:1024900092053091930540919405509195050E94C5
:1024A00006186B017C0120E030E044E352E40E9416
:1024B000F2150E94DA164B01A701960160E070E068
:1024C00084E392E40E94F1150E94DA16CB01B40174
:1024D0000E94C7030E94A907882309F4C4CE22E002
:1024E00030E0309341042093400488E591E00E945D
:1024F0004206B9CE70E060E090E080E00E94C70341
:1025000020EE3EE245E652E46091E6047091E70475
:102510008091E8049091E9040E9406186B017C0107
:1025200083E691E00E94400642E050E0C701B60118
:102530000E942C0720E030E84DE953E4C701B601C2
:102540000E940118181654F020E030E044E352E4F1
:10255000C701B6010E945E1687FFB9C085EC91E005
:102560000E9440068BE691E00E94400680913E0466
:1025700090913F040E94410780E891E00E9440064C
:10258000E0913E04F0913F04EE0FFF1FEE0FFF1F9E
:10259000E257FD4F608171818281938142E00E9408
:1025A000500688E991E00E944006E0913E04F091D7
:1025B0003F04EE0FFF1FEE0FFF1FEA59FC4F608133
:1025C00071818281938142E050E00E942C07A091AA
:1025D0003E04B0913F04BA83A9838D01000F111FFF
:1025E000000F111F02571D4FFD01EE0FFF1FEE0FD1
:1025F000FF1FE657FD4F20E030E040E85FE36081D9
:102600007181828193810E94F215F8016083718348
:1026100082839383E981FA81EE0FFF1FEE0FFF1F84
:10262000EE59FC4F80819181A281B381E981FA81C9
:10263000EE0FFF1FEE0FFF1FEA59FC4F80839183BF
:10264000A283B3838BE691E00E94400689819A8140
:102650000E9441078BE991E00E944006E0913E0410
:10266000F0913F04EE0FFF1FEE0FFF1FE257FD4FEB
:10267000608171818281938142E00E94500688E9E5
:1026800091E00E944006E0913E04F0913F04EE0F7D
:10269000FF1FEE0FFF1FEA59FC4F6081718182819D
:1026A000938142E050E00E942C0780913E0490917B
:1026B0003F04019690933F0480933E04309241047E
:1026C0002092400488E392E00E94420603CF2091CA
:1026D0003E0430913F043A83298320E030E044E314
:1026E00052E4C701B6010E94011818160CF082C00E
:1026F00020E030E047E053E4C701B6010E945E16D7
:1027000087FF78C08BE691E00E94400689819A811C
:102710000E94410780E891E00E944006E0913E045B
:10272000F0913F04EE0FFF1FEE0FFF1FE257FD4F2A
:10273000608171818281938142E00E94500688E924
:1027400091E00E944006E0913E04F0913F04EE0FBC
:10275000FF1FEE0FFF1FEA59FC4F608171818281DC
:10276000938142E050E00E942C07E0903E04F090FC
:102770003F04670131E0C31AD108A701440F551F78
:10278000440F551F4A595C4F5A834983F701EE0F96
:10279000FF1FEE0FFF1FEE59FC4F20E030E040E836
:1027A0005FE360817181828193810E94F215A9812A
:1027B000BA816D937D938D939C931397F601EE0FE1
:1027C000FF1FEE0FFF1FE257FD4F80819181A28115
:1027D000B381F701EE0FFF1FEE0FFF1FE257FD4F12
:1027E00080839183A283B3838BE691E00E944006AD
:1027F000C7012ECF20E030E047E053E4C701B60127
:102800000E94011818160CF0B0C020E030E041E63C
:1028100053E4C701B6010E945E1687FFA6C08BE68F
:1028200091E00E94400689819A810E94410780E8D8
:1028300091E00E944006E0913E04F0913F04EE0FCB
:10284000FF1FEE0FFF1FE257FD4F608171818281F4
:10285000938142E00E94500688E991E00E94400680
:10286000E0913E04F0913F04EE0FFF1FEE0FFF1FBB
:10287000EA59FC4F608171818281938142E050E08E
:102880000E942C07E0913E04F0913F04FA83E98313
:102890008F01000F111F000F111F02571D4FEE0F68
:1028A000FF1FEE0FFF1FE657FD4F20E030E040E82E
:1028B0005FE360817181828193810E94F115D8016B
:1028C0006D937D938D939C931397E981FA81EE0F1D
:1028D000FF1FEE0FFF1FEE59FC4F80819181A281F7
:1028E000B381E981FA81EE0FFF1FEE0FFF1FEA5956
:1028F000FC4F80839183A283B3838BE691E00E9497
:10290000400689819A810E9441078BE991E00E94EB
:102910004006E0913E04F0913F04EE0FFF1FEE0FE2
:10292000FF1FE257FD4F608171818281938142E0F8
:102930000E94500688E991E00E944006E0913E0422
:10294000F0913F04EE0FFF1FEE0FFF1FEA59FC4FFF
:10295000608171818281938142E050E00E942C0766
:1029600083EB91E00E944006A0CE20E030E041E6FB
:1029700053E4C701B6010E94011818160CF0B1C04B
:1029800020E030E84DE953E4C701B6010E945E162D
:1029900087FFA7C08BE691E00E94400689819A815B
:1029A0000E94410780E891E00E944006E0913E04C9
:1029B000F0913F04EE0FFF1FEE0FFF1FE257FD4F98
:1029C000608171818281938142E00E94500688E992
:1029D00091E00E944006E0913E04F0913F04EE0F2A
:1029E000FF1FEE0FFF1FEA59FC4F6081718182814A
:1029F000938142E050E00E942C07E0903E04F0906A
:102A00003F046701B1E0CB1AD108F701EE0FFF1FB9
:102A1000EE0FFF1FEA59FC4FFA83E983F701EE0F2F
:102A2000FF1FEE0FFF1FEE59FC4F20E030E040E8A3
:102A30005FE360817181828193810E94F115A98198
:102A4000BA816D937D938D939C931397F601EE0F4E
:102A5000FF1FEE0FFF1FE257FD4F80819181A28182
:102A6000B381F701EE0FFF1FEE0FFF1FE257FD4F7F
:102A700080839183A283B3838BE691E00E9440061A
:102A8000C7010E9441078BE991E00E944006E09156
:102A90003E04F0913F04EE0FFF1FEE0FFF1FE257C1
:102AA000FD4F608171818281938142E00E945006D6
:102AB00088E991E00E944006E0913E04F0913F04D5
:102AC000EE0FFF1FEE0FFF1FEA59FC4F608171816F
:102AD0008281938142E050E00E942C0783EC91E0D8
:102AE00041CF83ED91E03ECF86E191E00E94C904A1
:102AF00020E030E040EA51E40E94011887FD09C05F
:102B0000E4E0F0E0F0934104E09340048DE392E0D0
:102B1000EECC88E191E00E94C90420E030E040EA78
:102B200051E40E945E1618160CF4D9CC25E030E072
:102B3000309341042093400487E492E0D8CC60E0D5
:102B400070E086E992E40E94C309C6CC60E070E0C0
:102B500086E992EC0E94C309882309F484CB88E1BA
:102B600091E00E943A0788E191E00E94C90420E0C8
:102B700030E040EA51E40E945E1618160CF4AFCC27
:102B800046E050E0509341044093400483E592E0D6
:102B9000AECCA1E21A2EAA1BBB1BFD010DC0AA1FC1
:102BA000BB1FEE1FFF1FA217B307E407F50720F0B6
:102BB000A21BB30BE40BF50B661F771F881F991F31
:102BC0001A9469F760957095809590959B01AC017A
:102BD000BD01CF010895EE0FFF1F0590F491E02D88
:102BE00009945058BB27AA270E9409160C94B317C2
:102BF0000E947A1738F00E94811720F039F49F3F25
:102C000019F426F40C9477170EF4E095E7FB0C9476
:102C10007117E92F0E94D81758F3BA176207730784
:102C20008407950720F079F4A6F50C94FA170EF4B2
:102C3000E0950B2EBA2FA02D0B01B90190010C01CC
:102C4000CA01A0011124FF27591B99F0593F50F4E4
:102C5000503E68F11A16F040A22F232F342F44273C
:102C6000585FF3CF469537952795A795F040539534
:102C7000C9F77EF41F16BA0B620B730B840BBAF004
:102C80009150A1F0FF0FBB1F661F771F881FC2F76F
:102C90000EC0BA0F621F731F841F48F48795779583
:102CA0006795B795F7959E3F08F0B0CF9395880F3D
:102CB00008F09927EE0F9795879508950E944D1774
:102CC00008F481E008950E948A17E3950C94C417D4
:102CD0000E947C160C94B3170E94811758F00E9432
:102CE0007A1740F029F45F3F29F00C9471175111C5
:102CF0000C94FB170C9477170E94D81768F399234C
:102D0000B1F3552391F3951B550BBB27AA276217E7
:102D10007307840738F09F5F5F4F220F331F441FF4
:102D2000AA1FA9F335D00E2E3AF0E0E832D0915028
:102D30005040E695001CCAF72BD0FE2F29D0660F15
:102D4000771F881FBB1F261737074807AB07B0E858
:102D500009F0BB0B802DBF01FF2793585F4F3AF05E
:102D60009E3F510578F00C9471170C94FB175F3F50
:102D7000E4F3983ED4F3869577956795B795F795E4
:102D80009F5FC9F7880F911D9695879597F90895CC
:102D9000E1E0660F771F881FBB1F62177307840768
:102DA000BA0720F0621B730B840BBA0BEE1F88F777
:102DB000E09508950E94E1166894B1110C94FB17F8
:102DC00008950E94E01788F09F5798F0B92F99272F
:102DD000B751B0F0E1F0660F771F881F991F1AF006
:102DE000BA95C9F714C0B13091F00E94FA17B1E05A
:102DF00008950C94FA17672F782F8827B85F39F059
:102E0000B93FCCF3869577956795B395D9F73EF49E
:102E100090958095709561957F4F8F4F9F4F089546
:102E2000E89409C097FB3EF4909580957095619564
:102E30007F4F8F4F9F4F9923A9F0F92F96E9BB271A
:102E40009395F695879577956795B795F111F8CF96
:102E5000FAF4BB0F11F460FF1BC06F5F7F4F8F4F01
:102E60009F4F16C0882311F096E911C0772321F0F7
:102E70009EE8872F762F05C0662371F096E8862F8F
:102E800070E060E02AF09A95660F771F881FDAF7E6
:102E9000880F9695879597F90895990F0008550F13
:102EA000AA0BE0E8FEEF16161706E807F907C0F0D0
:102EB00012161306E407F50798F0621B730B840BD8
:102EC000950B39F40A2661F0232B242B252B21F4B2
:102ED00008950A2609F4A140A6958FEF811D811D52
:102EE000089597F99F6780E870E060E008959FEF8C
:102EF00080EC089500240A94161617061806090691
:102F0000089500240A94121613061406050608955F
:102F10000C9477170E94E017D8F3E894E0E0BB2701
:102F20009F57F0F02AED3FE049EC06C0EE0FBB0FD3
:102F3000661F771F881F28F0B23A6207730784075D
:102F400028F0B25A620B730B840BE3959A9572F7D3
:102F5000803830F49A95BB0F661F771F881FD2F711
:102F600090480C948218092E0394000C11F48823C5
:102F700052F0BB0F40F4BF2B11F460FF04C06F5F31
:102F80007F4F8F4F9F4F0895EF93E0FF07C0A2EA56
:102F90002AED3FE049EC5FEB0E9409160E94B3174F
:102FA0000F90039401FC9058ECEAF0E00C948E181A
:102FB00057FD9058440F551F59F05F3F71F04795EA
:102FC000880F97FB991F61F09F3F79F087950895CF
:102FD000121613061406551FF2CF4695F1DF08C0EE
:102FE000161617061806991FF1CF8695710561050B
:102FF00008940895E894BB2766277727CB0197F9B3
:1030000008950E944D1708F48FEF08950E94191833
:103010000C94B3170E947A1738F00E94811720F0A1
:10302000952311F00C9471170C94771711240C94BC
:10303000FB170E94D81770F3959FC1F3950F50E0CE
:10304000551F629FF001729FBB27F00DB11D639F5A
:10305000AA27F00DB11DAA1F649F6627B00DA11D00
:10306000661F829F2227B00DA11D621F739FB00DA6
:10307000A11D621F839FA00D611D221F749F332716
:10308000A00D611D231F849F600D211D822F762FAF
:103090006A2F11249F5750409AF0F1F088234AF08C
:1030A000EE0FFF1FBB1F661F771F881F91505040F8
:1030B000A9F79E3F510580F00C9471170C94FB17F3
:1030C0005F3FE4F3983ED4F3869577956795B7957F
:1030D000F795E7959F5FC1F7FE2B880F911D969599
:1030E000879597F908959F930E948A170F9007FC80
:1030F000EE5F0C94C4170E944D17880B990B08952E
:103100009F3F31F0915020F4879577956795B7955B
:10311000880F911D9695879597F908959F938F93A2
:103120007F936F93FF93EF939B01AC010E9406186E
:10313000EF91FF910E94A2182F913F914F915F91C3
:103140000C940618DF93CF931F930F93FF92EF9287
:10315000DF927B018C01689406C0DA2EEF010E9499
:103160001918FE01E894A591259135914591559145
:10317000A6F3EF010E940916FE019701A801DA9457
:1031800069F7DF90EF90FF900F911F91CF91DF9142
:10319000089581E090E0F8940C94CE18F894FFCF55
:1031A000FFFFFFFF00E1000000000000D801D80190
:1031B000D801D801D801120012000100C18081009D
:1031C00000000000000023039E02440339038A0329
:1031D000480366030000000075070D0A006E616E6B
:1031E00000696E66006F76660046726F6E743A20F4
:1031F00000536964653A200044524956455F4C4982
:103200004E450068656164696E670043757272655A
:103210006E7420436F6F7264696E6174653A20004A
:103220004F6C6420436F6F7264696E617465733AAA
:103230002028782C792920002020004E6577204313
:103240006F6F7264696E617465733A2028782C79A7
:10325000292000313830206465677265652063611C
:10326000736500323730206465677265652063617D
:103270007365003C3C3C3C3C3C3C3C3C3C3C3C3C6A
:103280003C3C3C3C3C3C3C3C3C3C3C3C3C3C3C3C7E
:103290003C5F5F5F5F5F5F5F5F5F5F5F5F5F5F5F61
:1032A0005F5F5F5F6572726F725F5F5F5F5F5F5FDF
:1032B0005F5F5F5F5F5F5F5F5F5F3E3E3E3E3E3EE4
:1032C0003E3E3E3E3E3E3E3E3E3E3E3E3E3E3E3E1E
:1032D0003E3E3E3E3E3E3E005455524E004F50450F
:1032E0004E5F4C45465400434C4F5345445F4C455C
:1032F000465400434C4F5345445F46524F4E540092
:00000001FF
