:100000000C94EF000C94DD0A0C94B60A0C948F0A41
:100010000C94680A0C9417010C9417010C94410A73
:100020000C9417010C94A50D0C94040B0C94730BF9
:100030000C9417010C9417010C9417010C941701E0
:100040000C9417010C9417010C9417010C941701D0
:100050000C9417010C9417010C9417010C94F709D8
:100060000C9417010C9417010C9417010C941701B0
:100070000C9417010C9417010C9417010C941701A0
:100080000C9417010C9417010C9417010C94170190
:100090000C9417010C9417010C9417010C94170180
:1000A0000C9417010C9417010C94170105A84CCD62
:1000B000B2D44EB93836A9020C50B9918688083CA2
:1000C000A6AAAA2ABE000000803F0000000025006A
:1000D00028002B002E003100000000002400270023
:1000E0002A002D0030000000000023002600290017
:1000F0002C002F000404040404030405020202027D
:1001000004030202020206060606060604040202B0
:100110000204040408020110408040102040804086
:10012000800802040180402010020110801020404D
:1001300040200000000200090F0000030401000C31
:1001400000000000000000000000000000000000AF
:1001500000080B0002020200000904000001020274
:1001600000000524001001052401010104240206F9
:100170000524060001070581031000400904010061
:10018000020A000000070502024000000705830282
:100190004000000403090412010002EF020140FBC9
:1001A0001F0023000101020301506F6C6F6C75206A
:1001B000436F72706F726174696F6E00506F6C6F15
:1001C0006C7520412D537461722033325534000711
:1001D0000605040100080A0B0C0D0900210E11246C
:1001E0001FBECFEFDAE0DEBFCDBF11E0A0E0B1E08F
:1001F000E6EBFBE202C005900D92A43DB107D9F7F2
:1002000025E0A4EDB1E001C01D92AE31B207E1F7E7
:1002100010E0CFEED0E004C02197FE010E94FB1257
:10022000CE3ED107C9F70E94F00E0C94D9150C945C
:100230000000FC018091CE03882311F13FB7F894B0
:1002400082E08093E9002091F200822F90E018165E
:10025000190614F481E090E0882339F0289844E6E8
:100260004093CD034091F1004083222339F0209147
:10027000F200211103C02BE62093E8003FBF089550
:100280008FEF9FEF08952FB7F89483E08093E900F4
:100290009091E800892F807295FF04C09091F20040
:1002A00080E4891B2FBF08958091C50381110DC083
:1002B00082E08093C10384E08093C2031092C40360
:1002C0001092C30381E08093C50381EC93E008950D
:1002D000823108F08251E82FF0E0E153FE4FE491C3
:1002E00090917B008E2F880F880F80729F7D892BC5
:1002F00080937B00E770E064E0937C0080917A005B
:10030000806480937A0080917A0086FDFCCF809192
:1003100078009091790008953FB7F8948091BD03DB
:100320009091BE03A091BF03B091C00326B5A89BD6
:1003300005C02F3F19F00196A11DB11D3FBFBA2F77
:10034000A92F982F8827BC01CD01620F711D811D37
:10035000911D42E0660F771F881F991F4A95D1F7BC
:1003600008958F929F92AF92BF92CF92DF92EF92B9
:10037000FF924B015C010E948C016B017C010E9489
:100380008C016C197D098E099F09683E73408105B7
:100390009105A8F321E0821A9108A108B10888EE1E
:1003A000C80E83E0D81EE11CF11C81149104A10445
:1003B000B10429F7FF90EF90DF90CF90BF90AF90FE
:1003C0009F908F9008952FB7F8946091B903709122
:1003D000BA038091BB039091BC032FBF0895089589
:1003E0004091FC015091FD012091FA013091FB01F7
:1003F00042175307B4F49091E8009570E1F390919F
:10040000E80092FD19C08093F1008091FC01909169
:10041000FD0101968F739927892B19F48EEF809334
:10042000E8008091FC019091FD0101969093FD01FF
:100430008093FC0181E0089580E00895EF92FF929F
:100440000F931F93CF93DF93F82E192FE62E042FCF
:1004500081E0860F880F0E94F00183E00E94F00186
:10046000CF2DD12FEC0EFD2EF11CCE15DF05B9F0EE
:1004700007FF13C0FE0184910E94F001182F80E055
:100480000E94F001812321968111EFCFDF91CF915E
:100490001F910F91FF90EF9008958881EDCF81E03B
:1004A000F5CFDF92EF92FF920F931F93CF93DF93DD
:1004B000D82E8A01EB017B01E40EF51ECE15DF0577
:1004C00059F0D7FE12C0FE0184910E94F0012196DE
:1004D0008111F4CF0FEF1FEFC801DF91CF911F9172
:1004E0000F91FF90EF90DF9008958881EECF0F93EA
:1004F0001F93CF93DF931F92CDB7DEB782E089833E
:1005000042E450E061E571E080E80E9451020E94FF
:100510005401DC0112960D911C910115110589F011
:10052000D801ED91FC910280F381E02DBE016F5F57
:100530007F4FC801099597FD04C0F801008511851A
:10054000ECCF89810F90DF91CF911F910F9108958A
:10055000615030F02091F100FC0120830196F8CF2A
:10056000289884E68093CD0308958F929F92AF924E
:10057000BF92CF92DF92EF92FF920F931F93CF9390
:10058000DF936C017B018A0180910B01882309F4C0
:100590005CC08091CE03882309F457C0809100028B
:1005A00080FF05C08091E00082608093E000E80158
:1005B000B12C8AEFA82E93E0892E2AE3922E209761
:1005C00011F4BB20D9F10E94430181110AC0AA9401
:1005D000AA20D9F161E070E080E090E00E94B101D2
:1005E000EECF8C171D0611F00CF08C2F9FB7F894EE
:1005F0008092E9002091E80025FD02C09FBFDFCF77
:10060000282F30E0C21BD30BF701815020F041911D
:100610004093F100FACFE20EF31EBB2021F090923E
:10062000E800B12CEBCF8091E80085FDE7CF9092F8
:10063000E800BB24B394209709F3F3CF5D9884E6D8
:100640008093FF01101611063CF081E090E0F60166
:100650009383828310E000E0C801DF91CF911F9166
:100660000F91FF90EF90DF90CF90BF90AF909F9051
:100670008F900895CF93DF931F92CDB7DEB7698334
:10068000DC01ED91FC910280F381E02D41E050E02E
:10069000BE016F5F7F4F09950F90DF91CF91089555
:1006A00083E08093E9008091F200882319F08AE3C7
:1006B0008093E80008950E94430190E00895CF934D
:1006C000DF931F92CDB7DEB7FC018485958597FD3A
:1006D00008C02FEF3FEF358724870F90DF91CF9130
:1006E0000895CE0101960E941901019719F489819C
:1006F00090E0F3CF8FEF9FEFF0CF0F931F93CF9347
:10070000DF931F92CDB7DEB78C01FC018485958500
:1007100097FF0BC0CE0101960E941901019771F459
:10072000898190E0F80195878487F8018485958513
:100730000F90DF91CF911F910F9108958FEF9FEF51
:10074000F1CFFC018485958597FD0BC09FB7F89488
:1007500082E08093E9008091F2009FBF90E00196D3
:1007600008959FB7F89482E08093E9008091F200A9
:100770009FBF90E008952E98269A2D98259A2A9842
:10078000229A2998219A2F98279A8AEA80938000A2
:1007900089E18093810084EA91E0909387008093BF
:1007A0008600109289001092880010928B0010929F
:1007B0008A0010928D0010928C0008950F931F9361
:1007C000CF93DF938C01EB018091E901811105C08A
:1007D00081E08093E9010E94BB0380E017FF04C021
:1007E00011950195110981E00D3291E0190714F07E
:1007F0000CE211E010938B0000938A00882329F10A
:100800002A9A229A8091E901811105C081E08093A2
:10081000E9010E94BB0380E0D7FF04C0D195C195D8
:10082000D10981E0CD3291E0D90714F0CCE2D1E0DA
:10083000D0938900C0938800882349F0299A219A8F
:10084000DF91CF911F910F9108952A98DACF2998BF
:10085000F6CF8CB1282F30E0359527953595279523
:10086000422F417083B190E054E0959587955A9559
:10087000E1F7822781702091E7019091E801609172
:10088000E5017091E60124279827291B330B260FD9
:10089000371F3093E6012093E5012091E701909105
:1008A000E801281729F0941719F091E09093E401DA
:1008B0008093E7014093E80108959FB191708CB156
:1008C00086FB882780F989272091E2013091E30196
:1008D0004091E0015091E10129273827231B330B78
:1008E000240F351F3093E1012093E0013091E201A4
:1008F0002091E301381729F0291719F021E02093FE
:10090000DF018093E2019093E301089524982C9AEB
:100910006A98729A6E98769A8098889AF89491E07C
:1009200090936800EBE6F0E080818061808329E2AB
:1009300034E03093F3012093F2019BBB80911F04BC
:100940008F7E80931F0483B190911F048071892B47
:1009500080931F0478948DE594E090931501809323
:100960001401EAE6F0E080818F7C80618083EE9A5A
:100970008CB182FB882780F98093E80193B1809144
:10098000E8019295917089278093E7011092E60122
:100990001092E5011092E4018FB181708093E30120
:1009A0009CB18091E30196FB992790F98927809368
:1009B000E2011092E1011092E0011092DF0108952E
:1009C000CF93DF93DC0118968C911897811135C075
:1009D00019962C91199730E0F901ED5EFE4F2C50DD
:1009E0003F4F81E018968C9318971A968C911A971E
:1009F000882309F451C08491F90124912223C9F07C
:100A000030E0220F331FF901E852FF4F4591549116
:100A1000F901E653FF4FC591D4912FB7F894FA012D
:100A20003081982F909593239083E881E82BE88379
:100A30002FBF8FE090E00197F1F719962C9119974D
:100A400030E0F901EE5CFE4F8491F901ED5EFE4F5E
:100A500094912C503F4FF9012491222309F483C033
:100A6000882309F43EC081508F3008F03AC0E82F47
:100A7000F0E0E35CFA4F0C94FB128E0592056C05D6
:100A800086058A0571057105710595059B059F050C
:100A9000A305A9057105AD058491F90124912223CF
:100AA00009F4C7CF30E0220F331FF901E852FF4F9E
:100AB00045915491F901E653FF4FC591D4912FB759
:100AC000F894FA019081382F3095892F8323808301
:100AD0008881E32FE823ABCF809180008F778093CC
:100AE0008000E22FF0E0EE0FFF1FEA51FF4FC591AB
:100AF000D491E8819E2331E009F430E0832F1B96E6
:100B00002C9182278170DF91CF9108958091800090
:100B10008F7DE5CF80918000877FE1CF84B58F778F
:100B200084BDDFCF84B58F7DFBCF809190008F7720
:100B300080939000D6CF809190008F7DF9CF8091E7
:100B40009000877FF5CF8091C0008F778093C000A1
:100B5000C8CF8091C0008F7DF9CF8091C200877F80
:100B60008093C200BECF80E0CACFCF93DF9382E1F3
:100B700095E00E94E004D1E0C82FCD270E94E30158
:100B800020911705213099F030F0223011F12330F7
:100B900041F1C0E008C0C111FCCF7093190560930A
:100BA0001805D09317058C2FDF91CF910895CC2392
:100BB00019F010921705EDCF209118053091190505
:100BC000621B730B6F30710570F382E08093170521
:100BD000E0CFCC2341F3709319056093180583E0AF
:100BE000F5CFCC2391F32091180530911905621BA4
:100BF000730B6F30710568F210921705D4CFCF9246
:100C0000DF92EF92FF92CF93DF93EC010E94E3011A
:100C10006B017C018091DB019091DC01A091DD01F1
:100C2000B091DE01B701A601481B590B6A0B7B0B83
:100C30008C859D85092E000CAA0BBB0B4817590704
:100C40006A077B0708F448C0809102029091030272
:100C50009093DA018093D9018091D7019091D801C6
:100C60009093D6018093D5018091D401811105C064
:100C700081E08093D4010E948604F8948091E5017C
:100C80009091E60178949093030280930202809100
:100C9000D401811105C081E08093D4010E948604B3
:100CA000F8948091E0019091E10178949093D801BB
:100CB0008093D7010E94E301C092DB01D092DC0156
:100CC000E092DD01F092DE0181E0DF91CF91FF90B3
:100CD000EF90DF90CF90089580E0F7CFCF92DF9232
:100CE000EF92FF92CF93DF93EC01288139814A8103
:100CF0005B81688579858A859B850E9478136B0165
:100D00007C016091D7017091D8018091D5019091BB
:100D1000D601681B790B072E000C880B990B0E94DB
:100D200022149B01AC01C701B6010E9416156B018C
:100D30007C016C857D85072E000C880B990B0E9429
:100D4000221420E030E04AE754E40E9478139B012B
:100D5000AC01C701B6010E947813DF91CF91FF90DB
:100D6000EF90DF90CF900895CF92DF92EF92FF92B5
:100D7000CF93DF93EC01288139814A815B816885BB
:100D800079858A859B850E9478136B017C0160912F
:100D90000202709103028091D9019091DA01681BDF
:100DA000790B072E000C880B990B0E9422149B01D3
:100DB000AC01C701B6010E9416156B017C016C8560
:100DC0007D85072E000C880B990B0E94221420E0D1
:100DD00030E04AE754E40E9478139B01AC01C7015C
:100DE000B6010E947813DF91CF91FF90EF90DF90D2
:100DF000CF900895FC0101900020E9F73197AF01F1
:100E0000481B590BBC018FEC93E00C94B5028F92F8
:100E10009F92AF92BF920F931F93CF93DF93CDB763
:100E2000DEB7A1970FB6F894DEBF0FBECDBF19A2F3
:100E3000423008F44AE08E010F5D1F4F842E912C42
:100E4000B12CA12CA50194010E94D912E62FB90161
:100E5000CA01EA30F4F4E05DD801EE938D01232B52
:100E6000242B252B79F790E080E0109719F0CD0125
:100E70000E94FA06A1960FB6F894DEBF0FBECDBF52
:100E8000DF91CF911F910F91BF90AF909F908F9066
:100E90000895E95CE1CF4F925F926F927F928F92BB
:100EA0009F92AF92BF92CF92DF92EF92FF920F93F9
:100EB0001F93CF936B017C01742EAC019B010E94A8
:100EC0008B15882399F085E391E0CF911F910F91C5
:100ED000FF90EF90DF90CF90BF90AF909F908F905A
:100EE0007F906F905F904F900C94FA0646015701E7
:100EF000E894B7F82FEF3FEF4FE75FE7C501B40184
:100F00000E948B1581110DC02FEF3FEF4FE75FE778
:100F1000C501B4010E946E1318161CF489E391E018
:100F2000D4CF2FEF3FEF4FE75FE4C701B6010E9438
:100F3000111518161CF48DE391E0C7CF2FEF3FEF8A
:100F40004FE75FECC701B6010E946E1387FDF3CF38
:100F500020E030E0A901C701B6010E946E1310E045
:100F600000E087FF0AC06DE28FEC93E00E943A0335
:100F70008C01F7FAF094F7F8F094C0E060E070E0CC
:100F800080E09FE37C1641F020E030E040E251E455
:100F90000E947813CF5FF6CFA70196010E9402133B
:100FA0002B013C010E94F1134B015C014AE00E94BD
:100FB00007077C01E00EF11ECC23C1F1C501B4018D
:100FC0000E9420149B01AC01C301B2010E940113D5
:100FD0004B015C016EE28FEC93E00E943A03E80E55
:100FE000F91EC15018F120E030E040E251E4C501A3
:100FF000B4010E9416152B013C010E94F1134B0114
:10100000B12CA12C4AE0C501B4010E940707E80EEB
:10101000F91EC501B4010E9420149B01AC01C3015B
:10102000B2010E9401134B015C01DBCFC701CF91DC
:101030001F910F91FF90EF90DF90CF90BF90AF90F6
:101040009F908F907F906F905F904F9008954F92F8
:101050005F926F927F928F929F92AF92BF92CF9248
:10106000DF92EF92FF920F931F93CF93DF93CDB751
:10107000DEB76A970FB6F894DEBF0FBECDBF9A8F6A
:10108000898F4A015B01280139010E94E301A98D82
:10109000BA8D96966D937D938D939C939997A501A8
:1010A0009401C301B8010E9401136B017C0120E08F
:1010B00030E0A9010E94111518160CF032C111E0A0
:1010C00020E030E040E85EE3C701B6010E94111560
:1010D00018160CF010E0A5019401C301B2010E94A2
:1010E00002134B015C01A98DBA8D1E968D919D91C5
:1010F0000D90BC91A02D8D839E83AF83B887E98D21
:10110000FA8D46885788608C718CC301B2010E94A9
:10111000731369877A878B879C87A98DBA8D5296BE
:101120008D919D910D90BC91A02D8D879E87AF874D
:10113000B88BC301B2010E948315698B7A8B8B8BAC
:101140009C8B112309F4FAC0A98DBA8D9E968D91BE
:101150009D910D90BC91A02D89839A83AB83BC8314
:1011600020E030E040E05FE3BC01CD010E941615B5
:101170006D8B7E8B8F8B988FA7019601C501B40173
:101180000E9478139B01AC016D897E898F89988DAF
:101190000E9416154B015C0129813A814B815C81CB
:1011A000C701B6010E9478132DEC3CEC4CE45DE3E2
:1011B0000E941615A30192010E9402136B017C018B
:1011C0000E9483152B013C0129893A894B895C894E
:1011D000C501B4010E9416159B01AC016D817E8191
:1011E0008F8198850E94011369837A838B839C8306
:1011F000A5019401C301B2010E9416159B01AC0127
:1012000069817A818B819C810E940213E98DFA8D1C
:1012100066877787808B918BC701B6010E94731315
:101220002B013C0129853A854B855C85C501B401BC
:101230000E94161569837A838B839C83A501940190
:10124000C301B2010E9416159B01AC0169817A812C
:101250008B819C810E9401132D853E854F85588985
:101260000E940213A98DBA8D52966D937D938D9332
:101270009C935597FD01C68AD78AE08EF18EA98D81
:10128000BA8D5696CD90DD90ED90FC9059972BED50
:101290003FE049EC50E4C701B6010E941115181651
:1012A0000CF08BC02BED3FE049EC50E4C701B601D8
:1012B0000E940113E98DFA8D668B778B808F918F59
:1012C000E98DFA8D86859785A089B18982AB93AB2C
:1012D000A4ABB5AB82899389A489B58986AB97AB5A
:1012E000A0AFB1AF86899789A08DB18D82AF93AF42
:1012F000A4AFB5AF6A960FB6F894DEBF0FBECDBFF0
:10130000DF91CF911F910F91FF90EF90DF90CF90E1
:10131000BF90AF909F908F907F906F905F904F9015
:10132000089520E030E040E85EEBC701B6010E947E
:101330006E13182F111F1127111FCDCE20E030E0A2
:1013400040E05FE3C501B4010E9416156B017C010A
:1013500029853A854B855C850E9416152DEC3CEC61
:101360004CE45DE30E9416152D813E814F81588526
:101370000E940213A98DBA8D1E966D937D938D9355
:101380009C93519729893A894B895C89C701B60199
:101390000E9416152DEC3CEC4CE45DE30E94161502
:1013A0002D853E854F8558890E940213E98DFA8D5F
:1013B000628B738B848B958B62CF20E030E0A90128
:1013C000C701B6010E946E1387FF7ACF2BED3FE075
:1013D00049EC50E4C701B6010E940213A98DBA8DF1
:1013E00056966D937D938D939C93599769CF1F92D9
:1013F0000F920FB60F9211242F933F938F939F93C9
:10140000AF93BF938091B9039091BA03A091BB03AE
:10141000B091BC033091B80323E0230F2D3758F56A
:101420000196A11DB11D2093B8038093B903909339
:10143000BA03A093BB03B093BC038091BD0390910A
:10144000BE03A091BF03B091C0030196A11DB11DC1
:101450008093BD039093BE03A093BF03B093C003DA
:10146000BF91AF919F918F913F912F910F900FBEA0
:101470000F901F90189526E8230F0296A11DB11D0D
:10148000D2CF1F920F920FB60F9211242F933F933A
:101490004F935F936F937F938F939F93AF93BF937C
:1014A000EF93FF93E0911401F09115010995FF91DD
:1014B000EF91BF91AF919F918F917F916F915F91CC
:1014C0004F913F912F910F900FBE0F901F90189545
:1014D0001F920F920FB60F9211242F933F934F93A9
:1014E0005F936F937F938F939F93AF93BF93EF938C
:1014F000FF93E0911201F09113010995FF91EF9193
:10150000BF91AF919F918F917F916F915F914F911B
:101510003F912F910F900FBE0F901F9018951F9223
:101520000F920FB60F9211242F933F934F935F9317
:101530006F937F938F939F93AF93BF93EF93FF939B
:10154000E0911001F09111010995FF91EF91BF9188
:10155000AF919F918F917F916F915F914F913F914B
:101560002F910F900FBE0F901F9018951F920F9202
:101570000FB60F9211242F933F934F935F936F9366
:101580007F938F939F93AF93BF93EF93FF93E091DC
:101590000E01F0910F010995FF91EF91BF91AF916D
:1015A0009F918F917F916F915F914F913F912F917B
:1015B0000F900FBE0F901F9018951F920F920FB6AD
:1015C0000F9211242F933F934F935F936F937F93C9
:1015D0008F939F93AF93BF93EF93FF93E0910C0191
:1015E000F0910D010995FF91EF91BF91AF919F91FE
:1015F0008F917F916F915F914F913F912F910F90BC
:101600000FBE0F901F9018951F920F920FB60F925A
:1016100011248F939F938091E1009091E100937F3B
:101620009093E10083FF0FC01092E90091E0909346
:10163000EB001092EC0092E39093ED001092CE0339
:1016400098E09093F00082FF22C093E09093E9002D
:101650009091F200992319F09AE39093E800909109
:10166000FF01992341F09091FF0191509093FF0168
:10167000911101C05D9A9091CD03992341F0909111
:10168000CD0391509093CD03911101C0289A84FF0E
:1016900018C08091E2008E7E81608093E20080918C
:1016A000E1008F7E8093E100809100028E7E806158
:1016B000809300029F918F910F900FBE0F901F900B
:1016C000189580FFF7CF8091E2008E7E8061809335
:1016D000E2008091E1008E7E8093E1008091000223
:1016E0008E7E8160E5CF1F920F920FB60F9211246C
:1016F000CF92DF92EF92FF920F931F932F933F931E
:101700004F935F936F937F938F939F93AF93BF9309
:10171000EF93FF93CF93DF93CDB7DEB76C97DEBF28
:10172000CDBF1092E9008091E80083FF25C068E0FA
:10173000CE0145960E94A80282EF8093E8008D8931
:1017400087FF39C09091E80090FFFCCF982F9076EA
:1017500009F034C19E894F89588D2F89F88C9111D9
:1017600031C0803861F5809101028093F1001092C0
:10177000F1008EEF8093E8006C960FB6F894DEBF10
:101780000FBECDBFDF91CF91FF91EF91BF91AF9190
:101790009F918F917F916F915F914F913F912F9189
:1017A0001F910F91FF90EF90DF90CF900F900FBEA1
:1017B0000F901F9018959EEF9093E800C7CF10925E
:1017C000F100D5CF913059F48111D3CF413051057B
:1017D00081F6809101028D7F80930102CACF933000
:1017E00049F48111C6CF4130510519F680910102AB
:1017F0008260F2CF953041F48091E80080FFFCCF09
:1018000020682093E300B5CF963009F0A9C00B8D76
:101810001C8D22E01092E9001092FD011092FC0153
:10182000F2122EC01092FB011092FA010E94770270
:101830001F8299E09983FA8291E09E8390EA9887CB
:101840009AEF99872091FC013091FD01275F3F4F6E
:101850003C832B838D831092E9001092FD0110923E
:10186000FC011093FB010093FA0149E050E0BE0136
:101870006F5F7F4F80E00E9451020E94770279CF14
:101880001093FB010093FA010E945401DC011296AF
:101890000D911C910115110509F451C1D801ED916B
:1018A000FC910480F581E02DBE016B5E7F4FC80185
:1018B0000995009709F03EC1F80100851185EACF2E
:1018C000F3E0FF120EC08F89882309F440C08230F4
:1018D00061F440E862E18CEB91E00E941E0281110C
:1018E00048CF81E28093EB0047CF813029F440E874
:1018F00062E189EA91E0F1CF833099F70E945401C7
:10190000DC011296ED90FC908E010F5F1F4F680175
:10191000E114F10479F0D701ED91FC910680F78193
:10192000E02DB801C7010995080F111DF701E084EA
:10193000F184EECFD8011C92F60101900020E9F766
:101940003197BF016C197D0940E0C601C6CF63E93C
:1019500071E0FB01449150E080E80E94510209CF00
:10196000973009F4BECF983021F481E08093F100E4
:1019700000CF993009F0FDCE837009F0B2CFE7E1D6
:10198000F1E081E031E096E32191222371F0809330
:10199000E9003093EB00DF0111972C912093EC00CC
:1019A0009093ED008F5F873079F78EE78093EA00A0
:1019B0001092EA008F898093CE03DBCE8B8D9C8DB5
:1019C0001092E9001092FD011092FC019093FB012E
:1019D0008093FA01898D811192C08E899D89913AF7
:1019E00049F4813209F07DCF47E050E064E071E0D6
:1019F00080E0B3CF913209F074CF833269F48F89DC
:101A0000988DB0E0A0E08093000190930101A09335
:101A10000201B0930301ADCE803269F48091E800F9
:101A200082FFFCCF67E084E091E00E94A8028BEF88
:101A30008093E8009ECE823209F09BCE8F898093FE
:101A40000B01EEEFFFE7859194918B3F9C4D51F197
:101A5000E0E0F8E08091040190910501A091060179
:101A6000B0910701803B9440A105B105F1F480914C
:101A70000B0180FD1AC0EE3F8AE0F80789F587E781
:101A800097E791838083809160008093FE0188E1D5
:101A90009BE00FB6F894A895809360000FBE9093DA
:101AA000600067CEEEEFFAE0D5CF80819181873775
:101AB000974709F05ECEA895809160008861809379
:101AC00060008091FE0180936000EE3F2AE0F20703
:101AD00089F08091FE0A9091FF0A9183808349CE1C
:101AE000808191818737980751F29093FF0A809304
:101AF000FE0AC5CF1092FF0A1092FE0A3ACE0E944B
:101B00005401DC0112960D911C910115110509F487
:101B1000E8CED801ED91FC910190F081E02DBE015D
:101B20006B5E7F4FC8010995811123CEF8010085B6
:101B30001185EBCF181619060CF41BCED2CEF1E0AE
:101B4000FF12BECE67E971E004CF1F920F920FB66D
:101B50000F9211242F933F934F935F936F937F9333
:101B60008F939F93AF93BF93EF93FF93CF93DF93A5
:101B700000D01F92CDB7DEB783B189838981909160
:101B80001F0489278A8380916B009A8189238B8324
:101B90008B8180FF05C0E091EA01F091EB0109958E
:101BA0008B8181FF05C0E091EC01F091ED01099579
:101BB0008B8182FF05C0E091EE01F091EF01099564
:101BC0008B8183FF05C0E091F001F091F10109954F
:101BD0008B8184FF05C0E091F201F091F30109953A
:101BE0008B8185FF05C0E091F401F091F501099525
:101BF0008B8186FF05C0E091F601F091F701099510
:101C00008B8187FF05C0E091F801F091F9010995FA
:101C1000898180931F040F900F900F90DF91CF91D7
:101C2000FF91EF91BF91AF919F918F917F916F91B4
:101C30005F914F913F912F910F900FBE0F901F908A
:101C40001895EFECF3E01382128288EE93E0A0E0A7
:101C5000B0E084839583A683B78381E291E091838A
:101C600080838FEF9FEF9587848783B180931F04D4
:101C7000E2E1F5E01282158210868EE0818781E034
:101C80008287838783E391E091838083E0E2F4E0BD
:101C900080E090E0A4EBB4E480839183A283B383DB
:101CA00080E090E0ACE0B2E484839583A683B783C0
:101CB00088E599EEABE5B3E480879187A287B38787
:101CC00082E390E09587848716861786108A118AAA
:101CD000128A138A148A158A168A178A108E118E10
:101CE000128E138E148E158E168E178E10A211A2C0
:101CF00012A213A214A215A280E090EEAEE0B3E40B
:101D000086A797A7A0ABB1AB12AA13AA14AA15AACB
:101D100016AA17AA10AE11AE12AE13AE14AE15AEBF
:101D200080E090E0A0E0BFE38093F0049093F104A2
:101D3000A093F204B093F3048DEC9CECACE4BEE30E
:101D40008093F4049093F504A093F604B093F70401
:101D50001092F8041092F9041092FA041092FB0405
:101D60001092FC041092FD041092FE041092FF04E5
:101D700088E090E0909301058093000585E190E074
:101D8000909303058093020586E190E0909305050A
:101D9000809304058DEC9CECACECBCE380930605D1
:101DA00090930705A0930805B093090580E090E0A3
:101DB000A8E4B3E480930A0590930B05A0930C0567
:101DC000B0930D0580E090E0A8ECB2E480930E059E
:101DD00090930F05A0931005B09311050C94E301A7
:101DE000CF93DF93CDB7DEB760970FB6F894DEBF21
:101DF0000FBECDBF789484B5826084BD84B5816008
:101E000084BD85B5826085BD85B5816085BD8091C5
:101E10006E00816080936E0010928100809181003D
:101E20008260809381008091810081608093810035
:101E30008091800081608093800080919100826019
:101E400080939100809191008160809391008091B6
:101E500090008160809390008091C10084608093A5
:101E6000C1008091C10082608093C1008091C10057
:101E700081608093C1008091C30081608093C30022
:101E80008091C00082608093C0008091C200816018
:101E90008093C20080917A00846080937A00809160
:101EA0007A00826080937A0080917A0081608093CA
:101EB0007A0080917A00806880937A001092CE0335
:101EC00010920102109200028091D70081608093ED
:101ED000D70080EA8093D80089B5806189BD89B533
:101EE000826089BD09B400FEFDCF61E070E080E052
:101EF00090E00E94B1018091D8008F7C8061809336
:101F0000D8008091E000807F8093E0008091E10024
:101F10008E7E8093E1008DE08093E200559A209AB6
:101F200012E0212E312C80E294E00E94FF058823EC
:101F300039F180E294E00E946E066B017C0180E240
:101F400094E00E94B406AB01BC019701860180E2D7
:101F500094E00E9427088091B6039091B7038230E5
:101F60009105A9F08330910509F495C2892B41F4BC
:101F70000E94B505882321F03092B7032092B60362
:101F800040E050E0452B79F20E940000CCCF8091D8
:101F900002050E9468018C01809104050E9468017D
:101FA0009C01B801110F880B990B8901330F220B8B
:101FB000330B600F711F821F931F0E942214209108
:101FC0000A0530910B0540910C0550910D050E94BA
:101FD0006E1387FFCCC08091B4039091B503863314
:101FE00091050CF4FAC070E060E090E080E00E949F
:101FF000DE0368EE73E080E090E00E94B1010E9491
:10200000E3016D877E878F87988B0E94E3012D8582
:102010003E854F855889621B730B840B950B693B7A
:102020007B408105910508F004C180E294E00E94A4
:10203000FF05882351F380E294E00E94B4069B01DF
:10204000AC0160E070E084E092E40E9401136B0157
:102050007C0180E294E00E946E069B01AC0160E08E
:1020600070E084E092E40E9401132B013C01209176
:10207000F8043091F9044091FA045091FB04C7012F
:10208000B6010E94021369877A878B879C876093C9
:10209000F8047093F9048093FA049093FB04209160
:1020A000FC043091FD044091FE045091FF04C301F3
:1020B000B2010E9402134B015C018092FC049092D9
:1020C000FD04A092FE04B092FF048091F004909170
:1020D000F104A091F204B091F30489839A83AB8355
:1020E000BC832091F4043091F5044091F6045091A2
:1020F000F7042D833E834F8358879C01AD01C301B4
:10210000B2010E9416152B013C012D813E814F81A9
:102110005885C501B4010E9416159B01AC01C3018D
:10212000B2010E9402130E94EA134B0129813A81F5
:102130004B815C81C701B6010E9416156B017C01C1
:102140002D813E814F81588569857A858B859C8557
:102150000E9416159B01AC01C701B6010E94021333
:102160000E94EA13CB01B4010E94DE034ECF80919E
:1021700002050E9468018C01809104050E9468019B
:10218000B801681B790B072E000C880B990B0E9475
:1021900022142091060530910705409108055091C1
:1021A00009050E9416156B017C0120E030E044E334
:1021B00052E40E9402130E94EA134B01A701960108
:1021C00060E070E084E392E40E9401130E94EA134D
:1021D000CB01B4010E94DE03CBCEFC01EE0FFF1F4A
:1021E000EE0FFF1FEC5FFD4F4091520450915304DE
:1021F00060915404709155044083518362837383CA
:10220000FC01EE0FFF1FEE0FFF1FE452FD4F409148
:1022100056045091570460915804709159044083BA
:1022200051836283738301969093B5038093B403C3
:10223000DACE70E060E090E080E00E94DE0320EE05
:102240003EE245E652E460915A0470915B0480914D
:102250005C0490915D040E9416154B015C0181E4C1
:1022600091E00E94FA0642E0C501B4010E944B07CA
:1022700089E491E00E94FA0620E030E84CEA53E459
:10228000C501B4010E941115181654F020E030E089
:1022900040E751E4C501B4010E946E1387FF57C0A7
:1022A0008EE591E00E94FA068091B4039091B50307
:1022B0008C01000F111F000F111F085F1D4F880FA9
:1022C000991F880F991FFC01EC5FFD4F20E030E063
:1022D00040E85FE360817181828193810E940213F3
:1022E000D8016D937D938D939C931397E091B403E4
:1022F000F091B503EE0FFF1FEE0FFF1FEC5FFD4FD8
:10230000608171818281938142E00E944B0781ED5F
:1023100091E00E94FA06E091B403F091B503EE0F4C
:10232000FF1FEE0FFF1FE452FD4F6081718182811C
:10233000938142E00E944B0789E491E00E94FA06F3
:1023400023E030E03093B7032093B60311CEE09042
:10235000B403F090B50320E030E046E952E4C50153
:10236000B4010E941115181644F520E030E042ED4A
:1023700052E4C501B4010E946E1387FF1EC087019D
:10238000000F111F000F111F00521D4FF701EE0F1C
:10239000FF1FEE0FFF1FE452FD4F20E030E040E84A
:1023A0005FE360817181828193810E940213F80151
:1023B000608371838283938399CF20E030E045E28C
:1023C00053E4C501B4010E94111518166CF520E004
:1023D00030E043E453E4C501B4010E946E1387FF6B
:1023E00023C08701000F111F000F111F085F1D4F31
:1023F000F701EE0FFF1FEE0FFF1FEC5FFD4F20E018
:1024000030E040E85FE360817181828193810E94C6
:102410000113D8016D937D938D939C9313978CE456
:1024200091E00E94FA0662CF20E030E04FE753E4EB
:10243000C501B4010E941115181654F520E030E8CA
:102440004EE853E4C501B4010E946E1387FF20C01B
:102450008701000F111F000F111F00521D4FF701C0
:10246000EE0FFF1FEE0FFF1FE452FD4F20E030E0A4
:1024700040E85FE360817181828193810E94011352
:10248000F80160837183828393838CE591E0C9CFE7
:102490008CE691E0C6CF70E060E090E080E00E94C2
:1024A000DE03809100059091010534E1389F6001C1
:1024B000399FD00C1124E0900202F0900302AA246C
:1024C000BB24AE18BF08A701F7FCA501809102024A
:1024D0009091030297FF03C09195819591099A010C
:1024E000281B390B121613061CF09C01241B350BFC
:1024F000C216D306FCF06EEC7FEF82E390E00E9400
:10250000DE0380E294E00E94FF058823E1F280E28E
:1025100094E00E946E062B013C0180E294E00E9450
:10252000B406AB01BC019301820180E294E00E94F9
:102530002708C9CF70E060E090E080E00E94DE03F1
:102540006CEE7FEF84E190E00E94DE038091020553
:102550000E9468018C01809104050E946801C0906E
:102560000A05D0900B05E0900C05F0900D05BC011C
:10257000990F880B990B0E942214A70196010E94C3
:102580006E1387FD0FC0B801110F880B990B0E94C5
:1025900022149B01AC01C701B6010E941115181647
:1025A0000CF0EECC70E060E090E080E00E94DE0392
:1025B000E3CCA1E21A2EAA1BBB1BFD010DC0AA1F72
:1025C000BB1FEE1FFF1FA217B307E407F50720F09C
:1025D000A21BB30BE40BF50B661F771F881F991F17
:1025E0001A9469F760957095809590959B01AC0160
:1025F000BD01CF010895EE0FFF1F0590F491E02D6E
:1026000009945058BB27AA270E9419130C94C3148D
:102610000E948A1438F00E94911420F039F49F3FF0
:1026200019F426F40C9487140EF4E095E7FB0C944F
:102630008114E92F0E94E81458F3BA176207730750
:102640008407950720F079F4A6F50C940A150EF48A
:10265000E0950B2EBA2FA02D0B01B90190010C01B2
:10266000CA01A0011124FF27591B99F0593F50F4CA
:10267000503E68F11A16F040A22F232F342F442722
:10268000585FF3CF469537952795A795F04053951A
:10269000C9F77EF41F16BA0B620B730B840BBAF0EA
:1026A0009150A1F0FF0FBB1F661F771F881FC2F755
:1026B0000EC0BA0F621F731F841F48F48795779569
:1026C0006795B795F7959E3F08F0B0CF9395880F23
:1026D00008F09927EE0F9795879508950E945D144D
:1026E00008F481E008950E949A14E3950C94D414A0
:1026F0000E948C130C94C3140E94911458F00E94F1
:102700008A1440F029F45F3F29F00C948114511190
:102710000C940B150C9487140E94E81468F3992309
:10272000B1F3552391F3951B550BBB27AA276217CD
:102730007307840738F09F5F5F4F220F331F441FDA
:10274000AA1FA9F335D00E2E3AF0E0E832D091500E
:102750005040E695001CCAF72BD0FE2F29D0660FFB
:10276000771F881FBB1F261737074807AB07B0E83E
:1027700009F0BB0B802DBF01FF2793585F4F3AF044
:102780009E3F510578F00C9481140C940B155F3F1B
:10279000E4F3983ED4F3869577956795B795F795CA
:1027A0009F5FC9F7880F911D9695879597F90895B2
:1027B000E1E0660F771F881FBB1F6217730784074E
:1027C000BA0720F0621B730B840BBA0BEE1F88F75D
:1027D000E09508950E94F1136894B1110C940B15C3
:1027E00008950E94F01488F09F5798F0B92F992708
:1027F000B751B0F0E1F0660F771F881F991F1AF0EC
:10280000BA95C9F714C0B13091F00E940A15B1E031
:1028100008950C940A15672F782F8827B85F39F030
:10282000B93FCCF3869577956795B395D9F73EF484
:1028300090958095709561957F4F8F4F9F4F08952C
:10284000E89409C097FB3EF490958095709561954A
:102850007F4F8F4F9F4F9923A9F0F92F96E9BB2700
:102860009395F695879577956795B795F111F8CF7C
:10287000FAF4BB0F11F460FF1BC06F5F7F4F8F4FE7
:102880009F4F16C0882311F096E911C0772321F0DD
:102890009EE8872F762F05C0662371F096E8862F75
:1028A00070E060E02AF09A95660F771F881FDAF7CC
:1028B000880F9695879597F90895990F0008550FF9
:1028C000AA0BE0E8FEEF16161706E807F907C0F0B6
:1028D00012161306E407F50798F0621B730B840BBE
:1028E000950B39F40A2661F0232B242B252B21F498
:1028F00008950A2609F4A140A6958FEF811D811D38
:10290000089597F99F6780E870E060E008959FEF71
:1029100080EC089500240A94161617061806090676
:10292000089500240A941216130614060506089545
:102930000C9487140E94F014D8F3E894E0E0BB27CD
:102940009F57F0F02AED3FE049EC06C0EE0FBB0FB9
:10295000661F771F881F28F0B23A62077307840743
:1029600028F0B25A620B730B840BE3959A9572F7B9
:10297000803830F49A95BB0F661F771F881FD2F7F7
:1029800090480C949215092E0394000C11F488239E
:1029900052F0BB0F40F4BF2B11F460FF04C06F5F17
:1029A0007F4F8F4F9F4F0895EF93E0FF07C0A2EA3C
:1029B0002AED3FE049EC5FEB0E9419130E94C3141B
:1029C0000F90039401FC9058ECEAF0E00C949E15F3
:1029D00057FD9058440F551F59F05F3F71F04795D0
:1029E000880F97FB991F61F09F3F79F087950895B5
:1029F000121613061406551FF2CF4695F1DF08C0D4
:102A0000161617061806991FF1CF869571056105F0
:102A100008940895E894BB2766277727CB0197F998
:102A200008950E945D1408F48FEF08950E942915FF
:102A30000C94C3140E948A1438F00E94911420F060
:102A4000952311F00C9481140C94871411240C9488
:102A50000B150E94E81470F3959FC1F3950F50E099
:102A6000551F629FF001729FBB27F00DB11D639F40
:102A7000AA27F00DB11DAA1F649F6627B00DA11DE6
:102A8000661F829F2227B00DA11D621F739FB00D8C
:102A9000A11D621F839FA00D611D221F749F3327FC
:102AA000A00D611D231F849F600D211D822F762F95
:102AB0006A2F11249F5750409AF0F1F088234AF072
:102AC000EE0FFF1FBB1F661F771F881F91505040DE
:102AD000A9F79E3F510580F00C9481140C940B15BE
:102AE0005F3FE4F3983ED4F3869577956795B79565
:102AF000F795E7959F5FC1F7FE2B880F911D96957F
:102B0000879597F908959F930E949A140F9007FC58
:102B1000EE5F0C94D4140E945D14880B990B0895F9
:102B20009F3F31F0915020F4879577956795B79541
:102B3000880F911D9695879597F908959F938F9388
:102B40007F936F93FF93EF939B01AC010E94161547
:102B5000EF91FF910E94B2152F913F914F915F919C
:102B60000C941615DF93CF931F930F93FF92EF9260
:102B7000DF927B018C01689406C0DA2EEF010E947F
:102B80002915FE01E894A59125913591459155911E
:102B9000A6F3EF010E941913FE019701A801DA9430
:102BA00069F7DF90EF90FF900F911F91CF91DF9128
:062BB0000895F894FFCF28
:102BB600FFFFFFFF00E1000000000000EF01EF0152
:102BC600EF01EF01EF0100C180810000000000006D
:102BD600003A03B5025B035003A1035F037D0300C4
:102BE600000000E0046E616E00696E66006F766636
:102BF6000068656164696E67000D0A00313830202F
:102C060064656772656520636173650032373020DD
:102C16006465677265652063617365003C3C3C3C96
:102C26003C3C3C3C3C3C3C3C3C3C3C3C3C3C3C3CDE
:102C36003C3C3C3C3C3C3C3C3C3C5F5F5F5F5F5FFC
:102C46005F5F5F5F5F5F5F5F5F5F5F5F5F65727262
:102C56006F725F5F5F5F5F5F5F5F5F5F5F5F5F5F5B
:102C66005F5F5F3E3E3E3E3E3E3E3E3E3E3E3E3E1B
:102C76003E3E3E3E3E3E3E3E3E3E3E3E3E3E3E3E6E
:042C8600002000002A
:00000001FF
