:100000000C94EF000C94E4070C94BD070C94960735
:100010000C946F070C9417010C9417010C9448076B
:100020000C9417010C94AC0A0C940B080C947A08ED
:100030000C9417010C9417010C9417010C941701E0
:100040000C9417010C9417010C9417010C941701D0
:100050000C9417010C9417010C9417010C94FE06D4
:100060000C9417010C9417010C9417010C941701B0
:100070000C9417010C9417010C9417010C941701A0
:100080000C9417010C9417010C9417010C94170190
:100090000C9417010C9417010C9417010C94170180
:1000A0000C9417010C9417010C94170105A84CCD62
:1000B000B2D44EB93836A9020C50B9918688083CA2
:1000C000A6AAAA2ABE000000803F0000000025006A
:1000D00028002B002E003100000000002400270023
:1000E0002A002D0030000000000023002600290017
:1000F0002C002F000404040404030405020202027D
:1001000004030202020206060606060604040202B0
:100110000204040408020110408040102040804086
:10012000800802040180402010020110801020404D
:1001300040200000000200090F0000030401000C31
:1001400000000000000000000000000000000000AF
:1001500000080B0002020200000904000001020274
:1001600000000524001001052401010104240206F9
:100170000524060001070581031000400904010061
:10018000020A000000070502024000000705830282
:100190004000000403090412010002EF020140FBC9
:1001A0001F0023000101020301506F6C6F6C75206A
:1001B000436F72706F726174696F6E00506F6C6F15
:1001C0006C7520412D537461722033325534000711
:1001D0000605040100080A0B0C0D0900280B112468
:1001E0001FBECFEFDAE0DEBFCDBF11E0A0E0B1E08F
:1001F000E8E7F9E202C005900D92AA36B107D9F7F7
:1002000023E0AAE6B1E001C01D92A230B207E1F7F7
:1002100010E0CFEED0E004C02197FE010E94DC1177
:10022000CE3ED107C9F70E94F70B0C94BA140C9478
:100230000000FC018091B201882311F13FB7F894CE
:1002400082E08093E9002091F200822F90E018165E
:10025000190614F481E090E0882339F0289844E6E8
:100260004093B1014091F1004083222339F0209165
:10027000F200211103C02BE62093E8003FBF089550
:100280008FEF9FEF08952FB7F89483E08093E900F4
:100290009091E800892F807295FF04C09091F20040
:1002A00080E4891B2FBF08958091A90181110DC0A1
:1002B00082E08093A50184E08093A6011092A801BA
:1002C0001092A70181E08093A90185EA91E0089549
:1002D000823108F08251E82FF0E0E153FE4FE491C3
:1002E00090917B008E2F880F880F80729F7D892BC5
:1002F00080937B00E770E064E0937C0080917A005B
:10030000806480937A0080917A0086FDFCCF809192
:1003100078009091790008953FB7F8948091A101F9
:100320009091A201A091A301B091A40126B5A89B30
:1003300005C02F3F19F00196A11DB11D3FBFBA2F77
:10034000A92F982F8827BC01CD01620F711D811D37
:10035000911D42E0660F771F881F991F4A95D1F7BC
:1003600008958F929F92AF92BF92CF92DF92EF92B9
:10037000FF924B015C010E948C016B017C010E9489
:100380008C016C197D098E099F09683E73408105B7
:100390009105A8F321E0821A9108A108B10888EE1E
:1003A000C80E83E0D81EE11CF11C81149104A10445
:1003B000B10429F7FF90EF90DF90CF90BF90AF90FE
:1003C0009F908F9008952FB7F89460919D01709140
:1003D0009E0180919F019091A0012FBF08950895E3
:1003E00040918E0150918F0120918C0130918D01AF
:1003F00042175307B4F49091E8009570E1F390919F
:10040000E80092FD19C08093F10080918E019091D7
:100410008F0101968F739927892B19F48EEF8093A2
:10042000E80080918E0190918F01019690938F0149
:1004300080938E0181E0089580E00895EF92FF920D
:100440000F931F93CF93DF93F82E192FE62E042FCF
:1004500081E0860F880F0E94F00183E00E94F00186
:10046000CF2DD12FEC0EFD2EF11CCE15DF05B9F0EE
:1004700007FF13C0FE0184910E94F001182F80E055
:100480000E94F001812321968111EFCFDF91CF915E
:100490001F910F91FF90EF9008958881EDCF81E03B
:1004A000F5CFDF92EF92FF920F931F93CF93DF93DD
:1004B000D82E8A01EB017B01E40EF51ECE15DF0577
:1004C00059F0D7FE12C0FE0184910E94F0012196DE
:1004D0008111F4CF0FEF1FEFC801DF91CF911F9172
:1004E0000F91FF90EF90DF9008958881EECF0F93EA
:1004F0001F93CF93DF931F92CDB7DEB782E089833E
:1005000042E450E061E571E080E80E9451020E94FF
:100510005401DC0112960D911C910115110589F011
:10052000D801ED91FC910280F381E02DBE016F5F57
:100530007F4FC801099597FD04C0F801008511851A
:10054000ECCF89810F90DF91CF911F910F9108958A
:10055000615030F02091F100FC0120830196F8CF2A
:10056000289884E68093B10108958F929F92AF926C
:10057000BF92CF92DF92EF92FF920F931F93CF9390
:10058000DF936C017B018A0180910B01882309F4C0
:100590005CC08091B201882309F457C08091920118
:1005A00080FF05C08091E00082608093E000E80158
:1005B000B12C8AEFA82E93E0892E2AE3922E209761
:1005C00011F4BB20D9F10E94430181110AC0AA9401
:1005D000AA20D9F161E070E080E090E00E94B101D2
:1005E000EECF8C171D0611F00CF08C2F9FB7F894EE
:1005F0008092E9002091E80025FD02C09FBFDFCF77
:10060000282F30E0C21BD30BF701815020F041911D
:100610004093F100FACFE20EF31EBB2021F090923E
:10062000E800B12CEBCF8091E80085FDE7CF9092F8
:10063000E800BB24B394209709F3F3CF5D9884E6D8
:1006400080939101101611063CF081E090E0F601D4
:100650009383828310E000E0C801DF91CF911F9166
:100660000F91FF90EF90DF90CF90BF90AF909F9051
:100670008F900895CF93DF931F92CDB7DEB7698334
:10068000DC01ED91FC910280F381E02D41E050E02E
:10069000BE016F5F7F4F09950F90DF91CF91089555
:1006A00083E08093E9008091F200882319F08AE3C7
:1006B0008093E80008950E94430190E00895CF934D
:1006C000DF931F92CDB7DEB7FC018485958597FD3A
:1006D00008C02FEF3FEF358724870F90DF91CF9130
:1006E0000895CE0101960E941901019719F489819C
:1006F00090E0F3CF8FEF9FEFF0CF0F931F93CF9347
:10070000DF931F92CDB7DEB78C01FC018485958500
:1007100097FF0BC0CE0101960E941901019771F459
:10072000898190E0F80195878487F8018485958513
:100730000F90DF91CF911F910F9108958FEF9FEF51
:10074000F1CFFC018485958597FD0BC09FB7F89488
:1007500082E08093E9008091F2009FBF90E00196D3
:1007600008959FB7F89482E08093E9008091F200A9
:100770009FBF90E008952E98269A2D98259A2A9842
:10078000229A2998219A2F98279A8AEA80938000A2
:1007900089E18093810084EA91E0909387008093BF
:1007A0008600109289001092880010928B0010929F
:1007B0008A0010928D0010928C0008950F931F9361
:1007C000CF93DF938C01EB0180917B01811105C0F8
:1007D00081E080937B010E94BB0380E017FF04C08F
:1007E00011950195110981E00D3291E0190714F07E
:1007F0000CE211E010938B0000938A00882329F10A
:100800002A9A229A80917B01811105C081E0809310
:100810007B010E94BB0380E0D7FF04C0D195C19546
:10082000D10981E0CD3291E0D90714F0CCE2D1E0DA
:10083000D0938900C0938800882349F0299A219A8F
:10084000DF91CF911F910F9108952A98DACF2998BF
:10085000F6CF8CB1282F30E0359527953595279523
:10086000422F417083B190E054E0959587955A9559
:10087000E1F7822781702091790190917A0160914E
:1008800077017091780124279827291B330B260FB5
:10089000371F30937801209377012091790190914F
:1008A0007A01281729F0941719F091E090937601B6
:1008B0008093790140937A0108959FB191708CB132
:1008C00086FB882780F98927209174013091750172
:1008D000409172015091730129273827231B330B54
:1008E000240F351F309373012093720130917401EE
:1008F00020917501381729F0291719F021E020936C
:1009000071018093740190937501089524982C9A35
:100910006A98729A6E98769A8098889AF89491E07C
:1009200090936800EBE6F0E080818061808329E2AB
:1009300034E030938501209384019BBB80910302B6
:100940008F7E8093030283B1909103028071892B83
:100950008093030278948DE594E090931501809341
:100960001401EAE6F0E080818F7C80618083EE9A5A
:100970008CB182FB882780F980937A0193B18091B2
:100980007A0192959170892780937901109278016C
:1009900010927701109276018FB18170809375016A
:1009A0009CB18091750196FB992790F989278093D6
:1009B00074011092730110927201109271010895E6
:1009C000CF93DF93DC0118968C911897811135C075
:1009D00019962C91199730E0F901ED5EFE4F2C50DD
:1009E0003F4F81E018968C9318971A968C911A971E
:1009F000882309F451C08491F90124912223C9F07C
:100A000030E0220F331FF901E852FF4F4591549116
:100A1000F901E653FF4FC591D4912FB7F894FA012D
:100A20003081982F909593239083E881E82BE88379
:100A30002FBF8FE090E00197F1F719962C9119974D
:100A400030E0F901EE5CFE4F8491F901ED5EFE4F5E
:100A500094912C503F4FF9012491222309F483C033
:100A6000882309F43EC081508F3008F03AC0E82F47
:100A7000F0E0E35CFA4F0C94DC118E0592056C05F6
:100A800086058A0571057105710595059B059F050C
:100A9000A305A9057105AD058491F90124912223CF
:100AA00009F4C7CF30E0220F331FF901E852FF4F9E
:100AB00045915491F901E653FF4FC591D4912FB759
:100AC000F894FA019081382F3095892F8323808301
:100AD0008881E32FE823ABCF809180008F778093CC
:100AE0008000E22FF0E0EE0FFF1FEA51FF4FC591AB
:100AF000D491E8819E2331E009F430E0832F1B96E6
:100B00002C9182278170DF91CF9108958091800090
:100B10008F7DE5CF80918000877FE1CF84B58F778F
:100B200084BDDFCF84B58F7DFBCF809190008F7720
:100B300080939000D6CF809190008F7DF9CF8091E7
:100B40009000877FF5CF8091C0008F778093C000A1
:100B5000C8CF8091C0008F7DF9CF8091C200877F80
:100B60008093C200BECF80E0CACFCF92DF92EF92D7
:100B7000FF92CF93DF93EC010E94E3016B017C01B4
:100B800080916D0190916E01A0916F01B091700103
:100B9000B701A601481B590B6A0B7B0B8C859D8501
:100BA000092E000CAA0BBB0B481759076A077B07D5
:100BB00008F448C0809194019091950190936C0144
:100BC00080936B0180919801909199019093970186
:100BD0008093960180916A01811105C081E0809324
:100BE0006A010E948604F8948091770190917801BF
:100BF0007894909395018093940180916A0181117A
:100C000005C081E080936A010E948604F894809177
:100C10007201909173017894909399018093980157
:100C20000E94E301C0926D01D0926E01E0926F01CB
:100C3000F092700181E0DF91CF91FF90EF90DF9013
:100C4000CF90089580E0F7CFCF92DF92EF92FF929E
:100C5000CF93DF93EC01288139814A815B816885DC
:100C600079858A859B850E9459126B017C01609170
:100C700094017091950180916B0190916C01681BBA
:100C8000790B072E000C880B990B0E9403139B0114
:100C9000AC01C701B6010E94F7136B017C016C85A2
:100CA0007D85072E000C880B990B0E94031320E012
:100CB00030E04AE754E40E9459129B01AC01C7019D
:100CC000B6010E945912DF91CF91FF90EF90DF9013
:100CD000CF900895FC0101900020E9F73197AF0112
:100CE000481B590BBC0183EB91E00C94B5028F9229
:100CF0009F92AF92BF920F931F93CF93DF93CDB785
:100D0000DEB7A1970FB6F894DEBF0FBECDBF19A214
:100D1000423008F44AE08E010F5D1F4F842E912C63
:100D2000B12CA12CA50194010E94BA11E62FB901A2
:100D3000CA01EA30F4F4E05DD801EE938D01232B73
:100D4000242B252B79F790E080E0109719F0CD0146
:100D50000E946A06A1960FB6F894DEBF0FBECDBF03
:100D6000DF91CF911F910F91BF90AF909F908F9087
:100D70000895E95CE1CFCF92DF92EF92FF92CF939B
:100D8000DF936B017C016DE283EB91E00E943A03FB
:100D9000EC0166277727CB016C197D098E099F0925
:100DA0004AE00E9477068C0F9D1FDF91CF91FF9044
:100DB000EF90DF90CF900895CF93DF930E946A0663
:100DC000EC0185E391E00E946A068C0F9D1FDF9184
:100DD000CF910895CF93DF9397FF0CC00E94BB067D
:100DE000EC0185E391E00E946A068C0F9D1FDF9164
:100DF000CF9108954AE00E947706F2CF1F920F929A
:100E00000FB60F9211242F933F938F939F93AF931D
:100E1000BF9380919D0190919E01A0919F01B091FF
:100E2000A00130919C0123E0230F2D3758F5019646
:100E3000A11DB11D20939C0180939D0190939E0163
:100E4000A0939F01B093A0018091A1019091A20174
:100E5000A091A301B091A4010196A11DB11D8093A1
:100E6000A1019093A201A093A301B093A401BF910B
:100E7000AF919F918F913F912F910F900FBE0F9047
:100E80001F90189526E8230F0296A11DB11DD2CF01
:100E90001F920F920FB60F9211242F933F934F93EF
:100EA0005F936F937F938F939F93AF93BF93EF93D2
:100EB000FF93E0911401F09115010995FF91EF91D5
:100EC000BF91AF919F918F917F916F915F914F9162
:100ED0003F912F910F900FBE0F901F9018951F926A
:100EE0000F920FB60F9211242F933F934F935F935E
:100EF0006F937F938F939F93AF93BF93EF93FF93E2
:100F0000E0911201F09113010995FF91EF91BF91CA
:100F1000AF919F918F917F916F915F914F913F9191
:100F20002F910F900FBE0F901F9018951F920F9248
:100F30000FB60F9211242F933F934F935F936F93AC
:100F40007F938F939F93AF93BF93EF93FF93E09122
:100F50001001F09111010995FF91EF91BF91AF91AF
:100F60009F918F917F916F915F914F913F912F91C1
:100F70000F900FBE0F901F9018951F920F920FB6F3
:100F80000F9211242F933F934F935F936F937F930F
:100F90008F939F93AF93BF93EF93FF93E0910E01D5
:100FA000F0910F010995FF91EF91BF91AF919F9142
:100FB0008F917F916F915F914F913F912F910F9002
:100FC0000FBE0F901F9018951F920F920FB60F92A1
:100FD00011242F933F934F935F936F937F938F933E
:100FE0009F93AF93BF93EF93FF93E0910C01F09128
:100FF0000D010995FF91EF91BF91AF919F918F9155
:101000007F916F915F914F913F912F910F900FBE04
:101010000F901F9018951F920F920FB60F921124E8
:101020008F939F938091E1009091E100937F909343
:10103000E10083FF0FC01092E90091E09093EB0074
:101040001092EC0092E39093ED001092B20198E0C0
:101050009093F00082FF22C093E09093E90090917A
:10106000F200992319F09AE39093E800909191018E
:10107000992341F090919101915090939101911198
:1010800001C05D9A9091B101992341F09091B10115
:1010900091509093B101911101C0289A84FF18C01A
:1010A0008091E2008E7E81608093E2008091E10079
:1010B0008F7E8093E100809192018E7E806180938B
:1010C00092019F918F910F900FBE0F901F901895D6
:1010D00080FFF7CF8091E2008E7E80618093E200F6
:1010E0008091E1008E7E8093E100809192018E7E5E
:1010F0008160E5CF1F920F920FB60F921124CF920D
:10110000DF92EF92FF920F931F932F933F934F9392
:101110005F936F937F938F939F93AF93BF93EF935F
:10112000FF93CF93DF93CDB7DEB76C97DEBFCDBF14
:101130001092E9008091E80083FF25C068E0CE01AD
:1011400045960E94A80282EF8093E8008D8987FF70
:1011500039C09091E80090FFFCCF982F907609F06D
:1011600034C19E894F89588D2F89F88C911131C0D7
:10117000803861F5809193018093F1001092F10025
:101180008EEF8093E8006C960FB6F894DEBF0FBE2A
:10119000CDBFDF91CF91FF91EF91BF91AF919F9123
:1011A0008F917F916F915F914F913F912F911F91FF
:1011B0000F91FF90EF90DF90CF900F900FBE0F90A8
:1011C0001F9018959EEF9093E800C7CF1092F10002
:1011D000D5CF913059F48111D3CF4130510581F6EB
:1011E000809193018D7F80939301CACF933049F40E
:1011F0008111C6CF4130510519F68091930182606B
:10120000F2CF953041F48091E80080FFFCCF206858
:101210002093E300B5CF963009F0A9C00B8D1C8D4B
:1012200022E01092E90010928F0110928E01F212CA
:101230002EC010928D0110928C010E9477021F82A5
:1012400099E09983FA8291E09E8390EA98879AEFD9
:10125000998720918E0130918F01275F3F4F3C830A
:101260002B838D831092E90010928F0110928E01D2
:1012700010938D0100938C0149E050E0BE016F5F37
:101280007F4F80E00E9451020E94770279CF109335
:101290008D0100938C010E945401DC0112960D9186
:1012A0001C910115110509F451C1D801ED91FC9172
:1012B0000480F581E02DBE016B5E7F4FC80109956A
:1012C000009709F03EC1F80100851185EACFF3E0EF
:1012D000FF120EC08F89882309F440C0823061F468
:1012E00040E862E18CEB91E00E941E02811148CF40
:1012F00081E28093EB0047CF813029F440E862E13E
:1013000089EA91E0F1CF833099F70E945401DC0122
:101310001296ED90FC908E010F5F1F4F6801E11453
:10132000F10479F0D701ED91FC910680F781E02D71
:10133000B801C7010995080F111DF701E084F18478
:10134000EECFD8011C92F60101900020E9F7319709
:10135000BF016C197D0940E0C601C6CF63E971E0A9
:10136000FB01449150E080E80E94510209CF973080
:1013700009F4BECF983021F481E08093F10000CFD2
:10138000993009F0FDCE837009F0B2CFE7E1F1E0CA
:1013900081E031E096E32191222371F08093E9000E
:1013A0003093EB00DF0111972C912093EC00909388
:1013B000ED008F5F873079F78EE78093EA00109217
:1013C000EA008F898093B201DBCE8B8D9C8D1092C9
:1013D000E90010928F0110928E0190938D018093FD
:1013E0008C01898D811192C08E899D89913A49F431
:1013F000813209F07DCF47E050E064E071E080E0A9
:10140000B3CF913209F074CF833269F48F89988D0C
:10141000B0E0A0E08093000190930101A09302014D
:10142000B0930301ADCE803269F48091E80082FF71
:10143000FCCF67E084E091E00E94A8028BEF8093EC
:10144000E8009ECE823209F09BCE8F8980930B01FB
:10145000EEEFFFE7859194918B3F9C4D51F1E0E0D9
:10146000F8E08091040190910501A0910601B091EE
:101470000701803B9440A105B105F1F480910B0177
:1014800080FD1AC0EE3F8AE0F80789F587E797E705
:1014900091838083809160008093900188E19BE03C
:1014A0000FB6F894A895809360000FBE90936000EB
:1014B00067CEEEEFFAE0D5CF8081918187379747ED
:1014C00009F05ECEA89580916000886180936000ED
:1014D0008091900180936000EE3F2AE0F20789F04E
:1014E0008091FE0A9091FF0A9183808349CE80818A
:1014F00091818737980751F29093FF0A8093FE0AF3
:10150000C5CF1092FF0A1092FE0A3ACE0E945401F3
:10151000DC0112960D911C910115110509F4E8CE1C
:10152000D801ED91FC910190F081E02DBE016B5E40
:101530007F4FC8010995811123CEF80100851185DF
:10154000EBCF181619060CF41BCED2CEF1E0FF1229
:10155000BECE67E971E004CF1F920F920FB60F92D3
:1015600011242F933F934F935F936F937F938F93A8
:101570009F93AF93BF93EF93FF93CF93DF9300D0ED
:101580001F92CDB7DEB783B1898389819091030221
:1015900089278A8380916B009A8189238B838B8131
:1015A00080FF05C0E0917C01F0917D0109958B8160
:1015B00081FF05C0E0917E01F0917F0109958B814B
:1015C00082FF05C0E0918001F091810109958B8136
:1015D00083FF05C0E0918201F091830109958B8121
:1015E00084FF05C0E0918401F091850109958B810C
:1015F00085FF05C0E0918601F091870109958B81F7
:1016000086FF05C0E0918801F091890109958B81E1
:1016100087FF05C0E0918A01F0918B0109958981CE
:10162000809303020F900F900F90DF91CF91FF9165
:10163000EF91BF91AF919F918F917F916F915F914A
:101640004F913F912F910F900FBE0F901F901895C3
:10165000E3EBF1E01382128288EE93E0A0E0B0E0C9
:1016600084839583A683B78381E291E0918380830D
:101670008FEF9FEF9587848783B180930302E6EF16
:10168000F2E01282158210868EE0818781E08287E7
:10169000838783E391E091838083E4E0F2E080E05C
:1016A00090E0A4EBB4E480839183A283B38380E0D1
:1016B00090E0ACE0B2E484839583A683B78388E5A9
:1016C00099EEABE5B3E480879187A287B38782E385
:1016D00090E09587848716861786108A118A128A69
:1016E000138A148A158A168A178A108E118E128E02
:1016F000138E148E158E168E178E10A211A212A2A2
:1017000013A214A215A280E090EEAEE0B3E486A787
:1017100097A7A0ABB1AB12AA13AA14AA15AA16AA2E
:1017200017AA10AE11AE12AE13AE14AE15AE80E015
:1017300090E0A0E0BFE38093D4029093D502A09301
:10174000D602B093D7028DEC9CECACE4BEE3809360
:10175000D8029093D902A093DA02B093DB021092E0
:10176000DC021092DD021092DE021092DF02109273
:10177000E0021092E1021092E2021092E30288E08D
:1017800090E09093E5028093E40285E190E09093ED
:10179000E7028093E60286E190E09093E90280936D
:1017A000E8028FE892ECA5E7BCE38093EA0290930D
:1017B000EB02A093EC02B093ED0280E090E0A8E48D
:1017C000B3E48093EE029093EF02A093F002B09303
:1017D000F10280E090E0A8ECB2E48093F2029093F2
:1017E000F302A093F402B093F5020C94E301CF93BB
:1017F000DF93CDB7DEB760970FB6F894DEBF0FBEAC
:10180000CDBF789484B5826084BD84B5816084BD89
:1018100085B5826085BD85B5816085BD80916E008E
:10182000816080936E0010928100809181008260BF
:1018300080938100809181008160809381008091FC
:10184000800081608093800080919100826080930D
:10185000910080919100816080939100809190002F
:101860008160809390008091C10084608093C1006A
:101870008091C10082608093C1008091C10081602D
:101880008093C1008091C30081608093C3008091E8
:10189000C00082608093C0008091C200816080930C
:1018A000C20080917A00846080937A0080917A00EF
:1018B000826080937A0080917A00816080937A00C0
:1018C00080917A00806880937A001092B201109221
:1018D0009301109292018091D70081608093D7008C
:1018E00080EA8093D80089B5806189BD89B582601E
:1018F00089BD09B400FEFDCF61E070E080E090E0BA
:101900000E94B1018091D8008F7C80618093D800C3
:101910008091E000807F8093E0008091E1008E7EE6
:101920008093E1008DE08093E200559A209A01E0D7
:1019300020E0222E20E0322E13E084E092E00E948C
:10194000B505882309F413C22091040230910502E1
:10195000409106025091070260910C0270910D02B5
:1019600080910E0290910F020E9459126B017C012E
:1019700060919801709199018091960190919701E1
:10198000681B790B072E000C880B990B0E94031320
:101990009B01AC01C701B6010E94F7136B017C01EA
:1019A0006091100270911102072E000C880B990BA8
:1019B0000E94031320E030E04AE754E40E945912E9
:1019C0009B01AC01C701B6010E9459122B013C01D9
:1019D00084E092E00E9424064B015C010E94E30136
:1019E00060932A0270932B0280932C0290932D0215
:1019F000A5019401C301B2010E94E2116B017C01B7
:101A000020E030E0A9010E94F21318160CF06EC01D
:101A100020E030E040E85EE3C701B6010E94F21327
:101A200018160CF46DC08FE391E00E94DC06A30150
:101A30009201C501B4010E94E31120E030E040E0D2
:101A40005FE30E94F7136B017C0180901A02909073
:101A50001B02A0901C02B0901D02C501B4010E949F
:101A600054129B01AC01C701B6010E94F7132DEC83
:101A70003CEC4CE45DE30E94F7139B01AC016091E8
:101A800012027091130280911402909115020E942B
:101A9000E3116093120270931302809314029093E7
:101AA0001502C501B4010E9464149B01AC01C70179
:101AB000B6010E94F7132DEC3CEC4CE45DE30E9470
:101AC000F7139B01AC01609116027091170280918F
:101AD0001802909119020E94E3116093160270930C
:101AE00017028093180290931902D0C020E030E0D2
:101AF00040E85EEBC701B6010E944F1287FF93CF0B
:101B000088E391E00E94DC0620913202309133029A
:101B1000409134025091350229833A834B835C8390
:101B2000A3019201C501B4010E94E311A70196012E
:101B30000E9459124B015C0120E030E040E05FE37D
:101B400069817A818B819C810E94F7139B01AC0192
:101B5000C501B4010E94F7134B015C0140901A02C9
:101B600050901B0260901C0270901D02C301B201D4
:101B70000E9464146D837E838F83988729813A81C4
:101B80004B815C81C701B6010E9459122DEC3CECDF
:101B90004CE45DE30E94F713A30192010E94E3115C
:101BA00069837A838B839C830E94641469877A8714
:101BB0008B879C872D813E814F815885C501B4015B
:101BC0000E94F7139B01AC01609112027091130205
:101BD00080911402909115020E94E2116B017C0128
:101BE00029853A854B855C85C501B4010E94F713B0
:101BF0009B01AC01C701B6010E94E3116093120280
:101C0000709313028093140290931502C301B201E2
:101C10000E9454126B017C0169817A818B819C81C5
:101C20000E9454122B013C01A7019601C501B40189
:101C30000E94F7136B017C01A3019201C501B4015D
:101C40000E94F7139B01AC01C701B6010E94E2118B
:101C500020911602309117024091180250911902FA
:101C60000E94E3116093160270931702809318028A
:101C700090931902C980DA80EB80FC80C0921A022E
:101C8000D0921B02E0921C02F0921D02C0901A0238
:101C9000D0901B02E0901C02F0901D022BED3FE063
:101CA00049EC50E4C701B6010E94F213181684F4FF
:101CB0002BED3FE049EC50E4C701B6010E94E21170
:101CC00060931A0270931B0280931C0290931D0272
:101CD0008091120290911302A0911402B09115020A
:101CE0008093360290933702A0933802B093390262
:101CF0008091160290911702A0911802B0911902DA
:101D000080933A0290933B02A0933C02B0933D0231
:101D100080911A0290911B02A0911C02B0911D02A9
:101D200080933E0290933F02A0934002B093410201
:101D300080919A0190919B018230910509F459C0DC
:101D40008330910509F48EC2892B89F486EF92E0E5
:101D50000E94E004F82EF0260E94E3012091FB028D
:101D60002130B9F058F0223039F1233071F12114CB
:101D7000310409F4E2CD0E940000DFCDF110F7CF6D
:101D80007093FD026093FC02DD24D394D092FB0299
:101D9000EECFFF2019F01092FB02E9CF2091FC0258
:101DA0003091FD02621B730B6F30710500F392E0FE
:101DB000E92EE092FB02DBCFFF20C9F27093FD0217
:101DC0006093FC021093FB02D2CFFF2081F320919D
:101DD000FC023091FD02621B730B6F30710538F20B
:101DE0001092FB0222E030E030939B0120939A0195
:101DF000BECF8091E6020E9468017C018091E802DA
:101E00000E946801A701FF0C660B770B092E000CDE
:101E1000AA0BBB0B6A017B01C80ED91EEA1EFB1E72
:101E2000C701B6010E9403132091EE023091EF0228
:101E30004091F0025091F1020E944F1287FD49C07B
:101E40008091E6020E9468017C018091E8020E9474
:101E500068016C01B7010F2C000C880B990B0E94D4
:101E6000EA06B6010D2C000C880B990B0E94EA06BD
:101E700087E391E00E94DC06B7016C197D09072E0B
:101E8000000C880B990B0E9403132091EA023091F9
:101E9000EB024091EC025091ED020E94F7136B01AE
:101EA0007C0120E030E044E352E40E94E3110E9410
:101EB000CB124B01A701960160E070E084E392E44D
:101EC0000E94E2110E94CB12CB01B4010E94DE03FA
:101ED0004ECF70E060E090E080E00E94DE034AE0D8
:101EE00061E270E080E090E00E94770685E391E097
:101EF0000E946A0668EE73E080E090E00E94B10103
:101F00000E94E3016D877E878F87988B0E94E30193
:101F1000CD84DE84EF84F8886C197D098E099F09D1
:101F2000693B7B408105910508F08FC184E092E018
:101F30000E94B505882351F384E092E00E942406B4
:101F40009B01AC0160E070E084E092E40E94E21149
:101F500069837A838B839C832091040230910502EC
:101F6000409106025091070260910C0270910D029F
:101F700080910E0290910F020E9459126B017C0118
:101F800060919801709199018091960190919701CB
:101F9000681B790B072E000C880B990B0E9403130A
:101FA0009B01AC01C701B6010E94F7136B017C01D4
:101FB0006091100270911102072E000C880B990B92
:101FC0000E94031320E030E04AE754E40E945912D3
:101FD0009B01AC01C701B6010E9459129B01AC01E3
:101FE00060E070E084E092E40E94E2112B013C0189
:101FF00088E491E00E946A0684E092E00E94240650
:102000006B017C01AC019B010E946C14882309F4D4
:102010008AC08BE591E00E946A0685E391E00E9408
:102020006A0687E691E00E94DC062091DC0230918E
:10203000DD024091DE025091DF0269817A818B815D
:102040009C810E94E31169877A878B879C876093C4
:10205000DC027093DD028093DE029093DF02209118
:10206000E0023091E1024091E2025091E302C301AB
:10207000B2010E94E3114B015C018092E002909258
:10208000E102A092E202B092E302C090D402D090AA
:10209000D502E090D602F090D7028091D8029091BC
:1020A000D902A091DA02B091DB028D839E83AF83C7
:1020B000B887A7019601C301B2010E94F7132B0153
:1020C0003C012D813E814F815885C501B4010E949C
:1020D000F7139B01AC01C301B2010E94E3110E94FE
:1020E000CB124B01A701960169817A818B819C817A
:1020F0000E94F7136B017C012D813E814F81588531
:1021000069857A858B859C850E94F7139B01AC01BC
:10211000C701B6010E94E3110E94CB12CB01B401AA
:102120000E94DE03F3CE46015701E894B7F82FEF83
:102130003FEF4FE75FE7C501B4010E946C148111C6
:102140000DC02FEF3FEF4FE75FE7C501B4010E94DD
:102150004F1218161CF48FE591E05DCF2FEF3FEF83
:102160004FE75FE4C701B6010E94F21318161CF492
:1021700083E691E050CF2FEF3FEF4FE75FECC701D1
:10218000B6010E944F1287FDF3CF20E030E0A90195
:10219000C701B6010E944F1287FF09C06DE283EBB1
:1021A00091E00E943A03F7FAF094F7F8F0942AE0ED
:1021B00037ED43EA5BE3C701B6010E94E3114B012F
:1021C0005C010E94D2126B017C010E9401139B01F1
:1021D000AC01C501B4010E94E2114B015C014AE06F
:1021E000C701B6010E9477066EE283EB91E00E9480
:1021F0003A0320E030E040E251E4C501B4010E941E
:10220000F7134B015C010E94D2126B01F12CE12CFF
:102210004AE0C701B6010E947706C701B6010E94D5
:1022200001139B01AC01C501B4010E94E21120E041
:1022300030E040E251E40E94F7130E94D21290E095
:1022400080E04AE00E947706E8CE70E060E090E02F
:1022500080E00E94DE03A3E0B0E0B0939B01A09376
:102260009A0185CD70E060E090E080E00E94DE039E
:102270008091E4029091E502B4E1B89F7001B99FAA
:10228000F00C1124A0909401B0909501CC24DD2491
:10229000CA18DB08A501B7FCA601809194019091B2
:1022A000950197FF03C09195819591099A01281B8B
:1022B000390B121613061CF09C01241B350BE21679
:1022C000F3065CF084E092E00E94B5056EEC7FEFCF
:1022D00082E390E00E94DE03DDCF70E060E090E0FA
:1022E00080E00E94DE036CEE7FEF84E190E00E94CC
:1022F000DE038091E6020E9468014C018091E802B1
:102300000E9468017C01092C000CAA08BB08C501C9
:10231000B4010E94EA064090EE025090EF026090F5
:10232000F0027090F102B701FF0C880B990B0E942C
:102330000313A30192010E944F1287FD0DC0C50136
:10234000B4010E9403139B01AC01C301B2010E94BE
:10235000F21318160CF00BCD70E060E090E080E016
:102360000E94DE0382E0C82ED12CD0929B01C09245
:102370009A01FDCCA1E21A2EAA1BBB1BFD010DC0C8
:10238000AA1FBB1FEE1FFF1FA217B307E407F50725
:1023900020F0A21BB30BE40BF50B661F771F881F01
:1023A000991F1A9469F760957095809590959B0197
:1023B000AC01BD01CF010895EE0FFF1F0590F49110
:1023C000E02D09945058BB27AA270E94FA110C94BB
:1023D000A4130E946B1338F00E94721320F039F49A
:1023E0009F3F19F426F40C9468130EF4E095E7FB74
:1023F0000C946213E92F0E94C91358F3BA176207AD
:1024000073078407950720F079F4A6F50C94EB1375
:102410000EF4E0950B2EBA2FA02D0B01B9019001FF
:102420000C01CA01A0011124FF27591B99F0593F43
:1024300050F4503E68F11A16F040A22F232F342F8B
:102440004427585FF3CF469537952795A795F040D9
:102450005395C9F77EF41F16BA0B620B730B840BEE
:10246000BAF09150A1F0FF0FBB1F661F771F881FA6
:10247000C2F70EC0BA0F621F731F841F48F48795FE
:1024800077956795B795F7959E3F08F0B0CF9395F0
:10249000880F08F09927EE0F9795879508950E9469
:1024A0003E1308F481E008950E947B13E3950C9499
:1024B000B5130E946D120C94A4130E94721358F06D
:1024C0000E946B1340F029F45F3F29F00C946213D3
:1024D00051110C94EC130C9468130E94C91368F307
:1024E0009923B1F3552391F3951B550BBB27AA27CD
:1024F00062177307840738F09F5F5F4F220F331F07
:10250000441FAA1FA9F335D00E2E3AF0E0E832D0CE
:1025100091505040E695001CCAF72BD0FE2F29D0D1
:10252000660F771F881FBB1F261737074807AB07A3
:10253000B0E809F0BB0B802DBF01FF2793585F4F18
:102540003AF09E3F510578F00C9462130C94EC1312
:102550005F3FE4F3983ED4F3869577956795B795FA
:10256000F7959F5FC9F7880F911D9695879597F905
:102570000895E1E0660F771F881FBB1F621773077E
:102580008407BA0720F0621B730B840BBA0BEE1F93
:1025900088F7E09508950E94D2126894B1110C94C6
:1025A000EC1308950E94D11388F09F5798F0B92F2B
:1025B0009927B751B0F0E1F0660F771F881F991F78
:1025C0001AF0BA95C9F714C0B13091F00E94EB131C
:1025D000B1E008950C94EB13672F782F8827B85F2C
:1025E00039F0B93FCCF3869577956795B395D9F7D0
:1025F0003EF490958095709561957F4F8F4F9F4FDA
:102600000895E89409C097FB3EF4909580957095E5
:1026100061957F4F8F4F9F4F9923A9F0F92F96E92E
:10262000BB279395F695879577956795B795F111A3
:10263000F8CFFAF4BB0F11F460FF1BC06F5F7F4F40
:102640008F4F9F4F16C0882311F096E911C0772352
:1026500021F09EE8872F762F05C0662371F096E85B
:10266000862F70E060E02AF09A95660F771F881F2A
:10267000DAF7880F9695879597F90895990F0008CE
:10268000550FAA0BE0E8FEEF16161706E807F90744
:10269000C0F012161306E407F50798F0621B730BDF
:1026A000840B950B39F40A2661F0232B242B252B60
:1026B00021F408950A2609F4A140A6958FEF811D03
:1026C000811D089597F99F6780E870E060E00895A4
:1026D0009FEF80EC089500240A941616170618063A
:1026E0000906089500240A94121613061406050616
:1026F00008950C9468130E94D113D8F3E894E0E095
:10270000BB279F57F0F02AED3FE049EC06C0EE0FE3
:10271000BB0F661F771F881F28F0B23A6207730746
:10272000840728F0B25A620B730B840BE3959A95D9
:1027300072F7803830F49A95BB0F661F771F881F99
:10274000D2F790480C947314092E0394000C11F4E2
:10275000882352F0BB0F40F4BF2B11F460FF04C07C
:102760006F5F7F4F8F4F9F4F0895EF93E0FF07C03C
:10277000A2EA2AED3FE049EC5FEB0E94FA110E94C9
:10278000A4130F90039401FC9058ECEAF0E00C9431
:102790007F1457FD9058440F551F59F05F3F71F05B
:1027A0004795880F97FB991F61F09F3F79F08795B8
:1027B0000895121613061406551FF2CF4695F1DF41
:1027C00008C0161617061806991FF1CF86957105D1
:1027D000610508940895E894BB2766277727CB0105
:1027E00097F908950E943E1308F48FEF08950E9410
:1027F0000A140C94A4130E946B1338F00E947213F5
:1028000020F0952311F00C9462130C94681311249A
:102810000C94EC130E94C91370F3959FC1F3950FAC
:1028200050E0551F629FF001729FBB27F00DB11D54
:10283000639FAA27F00DB11DAA1F649F6627B00DE4
:10284000A11D661F829F2227B00DA11D621F739FCD
:10285000B00DA11D621F839FA00D611D221F749FDB
:102860003327A00D611D231F849F600D211D822F22
:10287000762F6A2F11249F5750409AF0F1F0882349
:102880004AF0EE0FFF1FBB1F661F771F881F915076
:102890005040A9F79E3F510580F00C9462130C94B0
:1028A000EC135F3FE4F3983ED4F3869577956795F4
:1028B000B795F795E7959F5FC1F7FE2B880F911DA0
:1028C0009695879597F908959F930E947B130F9093
:1028D00007FCEE5F0C94B5130E943E13880B990B16
:1028E00008959F3F31F0915020F487957795679533
:1028F000B795880F911D9695879597F908959F93A1
:102900008F937F936F93FF93EF939B01AC010E9492
:10291000F713EF91FF910E9493142F913F914F91E4
:102920005F910C94F713DF93CF931F930F93FF9254
:10293000EF92DF927B018C01689406C0DA2EEF01E2
:102940000E940A14FE01E894A591259135914591C4
:102950005591A6F3EF010E94FA11FE019701A8011B
:10296000DA9469F7DF90EF90FF900F911F91CF916C
:08297000DF910895F894FFCFF8
:10297800FFFFFFFF00E1000000000000EF01EF0192
:10298800EF01EF01EF0100C18081000000000000AD
:10299800003A03B5025B035003A1035F037D030004
:1029A800000000E0040D0A00437572766564005368
:1029B80074726169676874005265616456656C6F0A
:1029C800636974794C6566742829006E616E0069C4
:0A29D8006E66006F766600200000B6
:00000001FF
